:100000000C9499020C94E0020C94E0020C94E0022F
:100010000C94E0020C94E0020C94E0020C94E002D8
:100020000C94E0020C94E0020C94EF280C94C32989
:100030000C940A240C94E0020C94E0020C94E0026C
:100040000C94E0020C94E0020C94E0020C94E002A8
:100050000C94E0020C947D240C94E0020C94E002D9
:100060000C94E0020C94E0020C94E0020C94E00288
:100070000C94E0020C94E0020C94E0020C94E00278
:100080000C94E0020C94E0020C94E0020C94E00268
:100090000C94E0020C94E0020C94E0020C94E00258
:1000A0000C94E0020C94E0020C94E0020102E37272
:1000B0000103E301043230307C002B0014001A00ED
:1000C0000800150017001C0018000C001200130097
:1000D0002A006F5D04001600070009000A000B00EB
:1000E0000D000E000F0033002800E1001D001B0072
:1000F00006001900050011001000360037005200FC
:100100004C00E000E300E200015102512C0000002D
:1001100002510151500051004F002F001E021F02DA
:1001200020022102220223022402250226022702A3
:100130002F0230001E001F0020002100220023009B
:100140002400250026002700300235003800640016
:1001500034002D002E002E022D023402310238020E
:100160003502E000E300E2000151E1002C00000054
:10017000E5000151E6003900E40029004200430097
:10018000440045004A004D005F00600061005700D8
:100190002A0046003E003F004000410049004B005D
:1001A0005C005D005E005600580048003A003B00CD
:1001B0003C003D0047004E0059005A005B005500CE
:1001C0004C00E000E300E200E100025153000000B7
:1001D00002516200630054002B00005C5F5D605DB3
:1001E000615D625D1A01AC00AB00AE0002570157C1
:1001F00000576F5D635D645D655D665D1703BE00FE
:10020000BD00F900FB00F300FC00675D685D695DFF
:100210006A5D6B5DC35CAA00A900FA00F100ED0005
:10022000F2006C5D6D5D6E5D50094F0907080000BE
:10023000A800F100EF00EE00F00000000000000058
:1002400000002A2B28000000000000000000000031
:10025000000000000029000000002C1E3420212294
:1002600024342627252E362D3738271E1F202122FD
:10027000232425263333362E37381F040506070876
:10028000090A0B0C0D0E0F10111213141516171866
:10029000191A1B1C1D2F3130232D350405060708A4
:1002A000090A0B0C0D0E0F10111213141516171846
:1002B000191A1B1C1D2F3130354C000000000000A6
:1002C000000000000000000000000000000000002E
:1002D00000000000000000000000000000007E0F91
:1002E00000D4FFFFFFC700000078000101010101F9
:1002F00001010101020202020202020202030303DF
:1003000003030303030404040404040405050505AE
:10031000050606060606070707070708080808096E
:100320000909090A0A0A0B0B0B0C0C0C0D0D0D0E1A
:100330000E0E0F0F0F1010111111121213131414AF
:10034000151516161717181819191A1A1B1B1C1D24
:100350001D1E1E1F2020212222232424252626277D
:100360002829292A2B2C2D2D2E2F303132323334AF
:1003700035363738393A3B3C3D3E3F4041424344B5
:1003800045464748494A4C4D4E4F50515354555697
:1003900058595A5B5D5E5F616264656668696B6C43
:1003A0006D6F7072737577787A7B7D7E80828385BE
:1003B00087888A8C8E8F91939596989A9C9EA0A2FE
:1003C000A3A5A7A9ABADAFB1B3B5B7BABCBEC0C208
:1003D000C4C6C9CBCDCFD1D4D6D8DBDDDFE2E4E7CC
:1003E000E9EBEEF0F3F5F8FAFDFF220342004D00D1
:1003F00034003000200048006F0074007300770064
:100400006100700020005200470042000000160307
:100410004B005000520065007000750062006C00D7
:100420006900630000000403090409023B000201A3
:1004300000A0FA09040000010301010009211101D3
:1004400000012240000705810308000A0904010099
:100450000103000000092111010001227B000705B2
:10046000820320000A1201100100000008504B30E6
:100470003401000102000105010902A10185020900
:1004800001A1000509190129081500250195087524
:100490000181020501093009311581257F95027519
:1004A00008810609381581257F95017508810605A3
:1004B0000C0A38021581257F950175088106C0C098
:1004C00005010980A101850319012AB7001501263C
:1004D000B700950175108100C0050C0901A10185C7
:1004E0000419012AA002150126A0029501751081A8
:1004F00000C005010906A101050719E029E715005B
:10050000250195087501810295017508810105078E
:10051000190029FF150026FF0095067508810005C2
:100520000819012905950575019102950175039139
:1005300001C011241FBECFEFDAE0DEBFCDBF04B68D
:1005400003FE27C08091070590910805A091090539
:10055000B0910A058730904BA740B04BD1F4109270
:100560000705109208051092090510920A0514BE9D
:1005700084B7877F84BF0FB6F894A89580916000F8
:10058000886180936000109260000FBEE0E0F8E3A5
:10059000099513E0A0E0B1E0E0E8F8E502C00590BD
:1005A0000D92A633B107D9F725E0A6E3B3E001C069
:1005B0001D92A730B207E1F70E942B260C94FE2B68
:1005C0000C94000081E00E94D6110C94B62380E0C8
:1005D0000E94D6110C94FE23CF93DF93EC018CEA9A
:1005E00090E00E94950681EE0E949F198CE792E0B0
:1005F0000E942806CE010E94280686E892E00E940A
:10060000280688E2DF91CF910C949F19CF938F55E4
:100610009D45C1E08131910580F4FC01E050F44D2D
:10062000DB011296CC910C949D2BCC2311F0C0E0F1
:1006300004C08BE892E00E94EC028C2FCF910895C9
:10064000CC23A9F38EE892E00E94EC02F0CF81E97E
:1006500092E0CC2361F3F8CF84E992E0CC2339F324
:10066000F3CF87E992E0CC2311F3EECF8AE992E051
:10067000CC23E9F2E9CF8DE992E0CC23C1F2E4CFBB
:1006800080EA92E0CC2399F2DFCF83EA92E0CC2398
:1006900071F2DACF86EA92E0CC2349F2D5CF89EA2B
:1006A00092E0CC2321F2D0CF8CEA92E0CC2309F463
:1006B000BECFCACF8FEA92E0CC2309F4B8CFC4CF23
:1006C00082EB92E0CC2309F4B2CFBECF85EB92E06F
:1006D000CC2309F4ACCFB8CF88EB92E0CC2309F45B
:1006E000A6CFB2CFCC2371F0C0913E03C1119FCFF2
:1006F00081E080933E030E943A2490933D038093CF
:100700003C039BCF10923E0380913C0390913D03AC
:100710000E94522486399105A0F480913B038111F7
:1007200006C081E080933B0382EE0E94A0180E94E5
:100730003A2490933A03809339038BE20E949F19E5
:100740007CCF83E00E942820882309F470CF80E0CA
:100750000E94332072CF81E00E94282081110DC0B9
:1007600082E00E94282081110BC083E00E94282093
:10077000811109C090E080E0089581E090E0089543
:1007800082E090E0089583E090E00895CF93809117
:100790003E03882371F080913C0390913D030E94B9
:1007A00052248639910528F083E00E94332010926C
:1007B0003E0380913B03882371F08091390390912F
:1007C0003A030E945224853F914028F082EE0E9415
:1007D000321910923B030E94AB03C82F809138035B
:1007E0008C1771F083E0CC2339F084E0C13021F024
:1007F00085E0C23009F086E00E940A12C0933803F7
:10080000CF91089583E00C940A12CF930E9423178E
:10081000C82F23ED40E064E981FD03C02BED40E7E4
:1008200063E990E080E00E94D60D23ED40E064E9AA
:10083000C0FF03C02BED40E763E98CE090E00E942D
:10084000D60D23ED40E064E9C2FD03C02BED40E787
:1008500063E988E190E0CF910C94D60DCF93DF93BC
:100860009C013A9521153F4168F5EC01CC27D170E8
:10087000DC01AA27B270AC01442754709C012227E6
:10088000387094FF11C080E1CD2B09F480E0AB2BD0
:1008900009F08062452B09F08064232B09F0806801
:1008A000FB01DF91CF91099481E0CD2B09F480E029
:1008B000AB2B09F08260452B09F08460232B81F378
:1008C0008860EECFDF91CF910895CF93DF93EC0155
:1008D000805E9109089720F06AE07CE1209711F48E
:1008E00067EA79E1CE010E942E048C2FDF91CF912F
:1008F0000C94A018CF93DF93EC010E943219CE0123
:10090000805E9109089720F061E17CE1209711F465
:100910006EEA79E1CE01DF91CF910C942E0481E053
:1009200008950C94060308950C9493041F93CF9399
:10093000DF9300D000D00F92CDB7DEB749835A8342
:100940006B8330919A0389819A8131111DC066238E
:10095000B9F02223A9F00E943821182F682F89812D
:100960009A810E94E42069817A81812F0F900F90F3
:100970000F900F900F90DF91CF911F910C94AB06C9
:100980000E941021182FEFCF0E94382169817A81AF
:10099000EDCFFC01262F40815181628173818481DA
:1009A0000C949604CF93DF93EC0160E00E94C9049D
:1009B000BE01DF91CF910C9494040E94CE080E9456
:1009C0007A110C94F3080E94C3160C94F50808954C
:1009D0000E942E1C0E94E7042FEF84E39CE021502C
:1009E00080409040E1F700C000000C94A1240F93D8
:1009F0001F93CF93DF938C0161E00E94C904EC0147
:100A0000B8010E942116B801CE010E9491048823EA
:100A100009F441C0B801CE010E9469168823D9F1BA
:100A2000B801CE010E94F2138823A9F1B801CE01CA
:100A30000E944414882379F1B801CE010E94671501
:100A4000882349F1B801CE010E94DE12882319F1F2
:100A5000F8018281882361F0CB35FDE5DF0721F1C4
:100A600070F4C115ECE5DE07A1F0CF3DDC45C9F01F
:100A7000C801DF91CF911F910F910C948F04CC3559
:100A80008DE5D807A1F0CD35DD4591F70E94DF2136
:100A9000EFCF0E94E80480E0DF91CF911F910F918A
:100AA00008950E945B23F7CF0E94E821E1CF0E94C6
:100AB000EB21DECFDF92EF92FF920F931F93CF9344
:100AC000DF93E82FF0E0E65CFD4FD490282F2695C9
:100AD0002695269530E0F901E652FD4F0491877086
:100AE00010E0082E02C0159507950A94E2F70170F0
:100AF0001127F901E653FD4FE490F12C082E02C0B6
:100B0000F594E7940A94E2F791E0E922FF24F901D1
:100B1000E654FD4FC491D0E002C0D595C7958A95A3
:100B2000E2F7C170DD270115110519F081EE0E9471
:100B3000A018E114F10419F086EE0E94A0188D2D82
:100B40000E949F19EF2819F086EE0E943219012B9E
:100B500019F081EE0E943219CD2B51F08CE2DF9119
:100B6000CF911F910F91FF90EF90DF900C949F1900
:100B7000DF91CF911F910F91FF90EF90DF9008953B
:100B8000EF92FF920F931F93CF93DF93EC01162FF9
:100B90000AE08881882309F454C0813009F04EC0EE
:100BA0008981813099F47E0122E0E20EF11C8A8174
:100BB0000E949F19E7012196812F815050F3EFE9A0
:100BC000FFE03197F1F700C00000F7CF823041F429
:100BD0007E0182E0E80EF11C8A810E94A018EACF13
:100BE000833041F47E01E2E0EE0EF11C8A810E9426
:100BF0003219E0CF843011F02196DDCF2A81229680
:100C000090E080E0AE014F5F5F4F2053330B2A30FE
:100C1000310548F0019778F2EFE9FFE03197F1F7FD
:100C200000C00000F7CF089FB001099F700D11248C
:100C3000C901860F971F2981EA01E4CF0E945A0556
:100C4000BACFDF91CF911F910F91FF90EF90089550
:100C500060E00C94C005EF92FF920F931F93CF9327
:100C6000DF938C01F62E8AE0E82EF8018491882328
:100C700009F454C0813009F04DC0E8012196FE010D
:100C80008491813091F42196FE0184910E949F19F4
:100C90008E010F5F1F4F8F2D815038F3EFE9FFE07A
:100CA0003197F1F700C00000F7CF823039F4E80146
:100CB0002296FE0184910E94A018EACF833039F475
:100CC000E8012296FE0184910E943219E1CF84301E
:100CD000F9F6E8012296FE01249190E080E0FE0101
:100CE00031962053330B2A30310548F0019780F2BA
:100CF000EFE9FFE03197F1F700C00000F7CFE89E81
:100D0000A001E99E500D1124C901840F951F249163
:100D1000EF01E5CF0E945A05E801BACFDF91CF91EC
:100D20001F910F91FF90EF90089560E00C942B06B7
:100D300008950C94980681E008950C949B06CF9337
:100D4000C82F0E9499068C2FCF910C949D0690E09D
:100D500080E008950895972F70E02CE0929F600D39
:100D6000711D1124FB0190E3899FE00DF11D1124F9
:100D7000EE0FFF1FE654FF4F859194910895FC01FB
:100D8000EE0FFF1FE651FD4F859194910895CF938B
:100D9000DF930E94AB060E94DC07EC01811520E581
:100DA000920708F042C0811530E4930708F0BDC0F7
:100DB000883E910528F5803E910508F09DC0883A4F
:100DC000910588F4853A910508F08FC0813091052E
:100DD00009F492C0009709F48FC0049708F08CC002
:100DE000D0E0C0E089C08F3B910508F489C0805CE9
:100DF0009109C03CD105A0F30E94BF06EC017CC064
:100E00008115904250F4C11581E0D80708F074C0F4
:100E1000CD3ED10528F3D0656FC0C11590E3D90749
:100E200008F079C0CE019F70E7CF811525E59207C4
:100E300058F5811534E5930708F0A6C0811542E501
:100E4000940750F4C11581E5D80708F471C0DC2F70
:100E5000CC27C16FD06A50C0982F969596959E0169
:100E600023703327C115D34508F07FC0C1E0D0E01F
:100E700002C0CC0FDD1F2A95E2F720E2929FC0014D
:100E80001124C82BD92B6FC0C11589E5D807A8F448
:100E9000C11598E5D90708F07CC0C11526E5D20731
:100EA00008F09ECF8C2F0E947308C82FD0E0DC2F53
:100EB000CC27CC27DF71D0621FC0C1153AE5D3071C
:100EC00008F46CC0CE0190568115904208F088CF8E
:100ED0008D2F8F710E94730890E0982F88278827A4
:100EE0009F719C012C2BE901E6CFC55AD0E0C75178
:100EF000DD4FC881D0E0D064CE01DF91CF9108955D
:100F0000C85AD0E0CC0FDD1FC554DD4F0990D88101
:100F1000C02DD464F1CFCE019927D3FF03C0EC01DB
:100F2000D86CEACFEC01D06CE7CFDF70D06AE4CFA9
:100F3000CE01E4E096958795EA95E1F783702C2F32
:100F400026952695237090E2299F90011124382B35
:100F50008C2F8370C1E0D0E002C0CC0FDD1F8A95DA
:100F6000E2F7C22BD32BDC68C7CFC1E0D0E002C0D0
:100F7000CC0FDD1F2A95E2F730E2939FC0011124C8
:100F8000C82BD92BDA68B8CFD82FCC27C46FD06A3A
:100F9000B3CFDC2FCC27C06FD06AAECF8C2F8F7031
:100FA0000E94730834E0D695C7953A95E1F7CF7063
:100FB0009C2FEC01D069A0CF82389105B1F1B0F43B
:100FC0008133910509F475C048F48932910509F41B
:100FD00069C08A32910509F473C00895853391057B
:100FE00009F459C08933910501F10895833E9105B3
:100FF000A9F138F4803E9105F9F0823E910549F15E
:101000000895863E9105A9F1873E9105C9F1843E78
:10101000910519F52091130421FF1FC0809112043E
:1010200084FD14C087EE90E008952091120423708F
:10103000A1F080EE90E008952091120420FD47C0B9
:101040003091130430FF09C024FF44C090E080E0D9
:1010500004C02091120422FDF7CF089520911204BC
:1010600022FD3BC03091130430FDE3CF24FFF5CFC8
:10107000EDCF2091120423FFF0CF24FDE7CFD2CF94
:101080002091120423FD2CC03091130431FFEECFC8
:1010900084EE90E008952091120425FFDECF89E2CE
:1010A00090E008952091120425FFD7CF85E390E0CA
:1010B00008952091120426FFD0CF8AE290E008958F
:1010C0002091120426FFC9CF81E390E0089589E3BF
:1010D00090E0089583EE90E0089582EE90E0089508
:1010E00086EE90E008959091120492FF06C0282F9A
:1010F00028712830F9F4877F846093FF06C0282F79
:1011000028712831F1F4877E84612091130420FF37
:1011100006C0382F38713830D9F4877F816021FFBD
:1011200006C0282F28712831D1F4877E816194FD73
:10113000877E0895282F24712430F9F68B7F8860EC
:10114000DCCF282F2471243101F78B7E8861DDCF1D
:10115000382F3171313019F78E7F8860E0CF282F1A
:101160002171213121F78E7E8861E1CF0C94B0226C
:101170000E945E098FE39CE90197F1F700C000002F
:101180000E945E0980E00E94F70880FF04C00E9470
:10119000B6080C94A12408950C94B8080E94B622B5
:1011A000811102C00E945B230E94C1228093060429
:1011B0000E94C92290931304809312040E94CC08C9
:1011C0000E94C522682F70E090E080E00E94C61F58
:1011D0006091F1037091F2038091F3039091F40315
:1011E0000C94002008950C94F2080C94C603E82F88
:1011F000F0E0EE0FFF1FE45EFB4F808191810895C8
:10120000089580EA8A95F1F7089500C008950C9436
:101210000109F894E82FE295EF70F0E031A1282F52
:101220002F7081E090E001C0880F2A95EAF7982F8F
:101230009095932391A392A1892B82A378940895EA
:10124000CF93DF9383E30E94090982E30E94090997
:1012500086EC0E94090985E30E940909CCEED2E0E0
:1012600089910E94090982E0C83FD807C9F7109206
:1012700015041092140410921D0410921C04109274
:1012800017041092160410921F0410921E0410925C
:101290001904109218041092210410922004109244
:1012A0001B0410921A04109223041092220484E06A
:1012B0000E94DE09DF91CF910C94DD04AF92BF92C2
:1012C000DF92EF92FF920F931F93CF93DF93C8EFBC
:1012D000D2E004E114E0D12CEE24E394F12C8991C6
:1012E000F894E82FE295EF70F0E021A18F70A7014C
:1012F00002C0440F551F8A95E2F7CA01922F982B1E
:1013000091A392A18095892382A378940E940509D4
:10131000ECEEF2E030E020E0B12CA12C4191A42FC2
:10132000A295AF70B0E090968C9190E04F7002C0A3
:10133000959587954A95E2F780FD3BC0C701022E3F
:1013400002C0880F991F0A94E2F7A82AB92A2F5FD2
:101350003F4F2C30310511F7FE01319780810E94FB
:1013600009090E940709F80180819181A816B90630
:1013700019F1B182A08281E0D82A0E5F1F4FF2E0FE
:10138000CC3FDF0709F0ABCF2D2D44E06CE174E0DA
:1013900084E194E00E94DF090E94E3048D2DDF9137
:1013A000CF911F910F91FF90EF90DF90BF90AF9082
:1013B000089590E080E0C9CF80E0DECF0895FF92ED
:1013C0000F931F93CF93DF93F82E092F162FD72F4C
:1013D000C42F222349F081E0809341030E943A24E4
:1013E0009093400380933F03809141038823A1F0B1
:1013F00080913F03909140030E945224069760F031
:10140000EF2DF02FA12FBD2F90E080E0D0E08C17C2
:101410009D0744F010924103DF91CF911F910F91EE
:10142000FF900895219131912D933D930196EFCF37
:101430008091480380FF12C06091220285E0689F7E
:10144000B00111247595679575956795603871059C
:10145000A8F561157105A1F1862F089581FF09C0D6
:101460006091220285E0689FB0011124759567950F
:10147000EDCF6091220282FD0AC08091470388234C
:10148000D1F09091210260912202891728F085E025
:10149000689FB0011124DACF869FB001112485E046
:1014A000869F9001879F300D1124692F70E0C9013C
:1014B0000E94892BCBCF65E070E0CECF8FE70895F7
:1014C00081E008958091480380FF0CC060911E0266
:1014D00070E075956795759567956115710549F18A
:1014E000862F089581FF06C060911E0270E07595F9
:1014F0006795F3CF60911E0282FD0BC09091460369
:101500009923A1F060911D0280911E02961738F078
:10151000682F70E06038710500F38FE70895899FA8
:10152000C001112470E00E94892BF4CF61E070E0CB
:10153000D7CF81E008958D3E31F40E94180A81953D
:1015400080934C0308958E3E19F40E94180AF8CF38
:101550008F3E31F40E94180A819580934B030895C1
:10156000803F19F40E94180AF8CF893F29F40E949D
:10157000620A80934D0308958A3F21F40E94620A13
:101580008195F7CF8B3F31F40E94620A8195809359
:101590004E0308958C3F19F40E94620AF8CF9FE031
:1015A000980F983070F4815F990B21E030E001C012
:1015B000220F8A95EAF780914A03822B80934A038F
:1015C00008958D3F31F480914803816080934803F2
:1015D00008958E3F21F4809148038260F7CF8F3FBA
:1015E000B9F7809148038460F1CF40914B038D3E61
:1015F00059F480914C0387FF0DC010924C034111A8
:101600000BC01092470308C08E3E81F480914C03BA
:1016100018169CF3442381F080914D0390914E0362
:10162000892B09F05AC01092460308958F3E49F461
:1016300047FFF0CF10924B0380914C038111ECCF08
:10164000E0CF803F19F41416ACF3E4CF90914D0332
:10165000893F29F41916F4F610924D03DBCF8A3F27
:1016600019F497FFD7CFF8CF90914E038B3F29F411
:1016700097FFD0CF10924E03CDCF8C3F19F419169F
:10168000CCF3C8CF9FE0980F983090F4815F990B0E
:1016900021E030E0B90102C0660F771F8A95E2F7BA
:1016A000CB01809590914A03892380934A03B2CF5E
:1016B0008D3F31F4809148038E7F80934803AACFF9
:1016C0008E3F21F4809148038D7FF7CF8F3F09F043
:1016D000A1CF809148038B7FF0CF08950E943A24D8
:1016E0009C0190914B0380914C03982B21F03093F7
:1016F00045032093440390914D0380914E03982B12
:1017000021F0309343032093420389E493E00C9447
:101710003B17EF92FF920F931F93CF93DF9300D06D
:1017200000D000D0CDB7DEB786E0E9E4F3E0DE011B
:10173000119601900D928A95E1F7E0904B03F0909D
:101740004C0300914D0310914E0310924B031092E5
:101750004C0310924D0310924E038E2D8F2991F061
:1017600080914403909145030E945224AC019091D2
:101770004703992309F43FC080912302841715067B
:1017800008F447C0802F812B91F080914203909103
:1017900043030E945224AC0190914603992309F41B
:1017A00077C080911F028417150608F47FC08091CE
:1017B0004B0390914C03892B90914D03892B909171
:1017C0004E03892B11F00E946E0B86E0FE013196CC
:1017D000A9E4B3E001900D928A95E1F726960FB641
:1017E000F894DEBF0FBECDBFDF91CF911F910F9157
:1017F000FF90EF900895209124028AE0289F9001A5
:1018000011242417350708F0BDCF9F5F909347033D
:1018100002C09F3FD1F7EE2059F00E94180A9FEFB7
:101820001E140CF491E0899F802D112480934B03AA
:10183000FF2059F00E94180A9FEF1F140CF491E04A
:10184000899F802D112480934C0330914B033323C7
:1018500009F498CF20914C03222309F493CF45EB50
:101860003403C0011124992359F090934B0345EBA5
:10187000240390011124332339F030934C0382CF99
:1018800081E080934B03F3CF81E080934C037ACFC8
:10189000209120028AE0289F900111242417350707
:1018A00008F085CF9F5F9093460302C09F3FD1F71A
:1018B000002359F00E94620A9FEF10160CF491E089
:1018C000899F802D112480934D03112359F00E948C
:1018D000620A9FEF11160CF491E0899F802D11246C
:1018E00080934E0330914D03332309F460CF209150
:1018F0004E03222309F45BCF45EB3403C0011124CE
:10190000992359F090934D0345EB24039001112442
:10191000332339F030934E034ACF81E080934D0357
:10192000F3CF81E080934E0342CF86E0E9E4F3E019
:10193000DF011D928A95E9F7109247031092460342
:10194000109248030895EF92FF920F931F93CF9345
:10195000DF93EB01E82FD11110C0442321F0F0E018
:10196000E651FD4FE4916E2F7E2F8E2FDF91CF91A8
:101970001F910F91FF90EF9008950D2F10E0282FE9
:1019800030E0442329F026513D4FF901249130E005
:10199000F6E0CF9FC0011124EFEFF0E0BF010E94FD
:1019A000752BAB018C2F90E0880F991FA5E5A49FA4
:1019B000B001A59F700D1124861B970B982F990FCE
:1019C000980FBF01601B710B629FD001639FB00D28
:1019D000729FB00D11248B2F9D9FB0011124672F92
:1019E0007727EF01C61BD70BBE01629FE001639F03
:1019F000D00D729FD00D11247F01E91AF108E09EED
:101A0000B001E19E700DF09E700D1124672F7727B5
:101A1000E61BF70BE29F8001E39F100DF29F100D74
:101A20001124E12F722F4230510599F048F44115ED
:101A3000510569F04130510581F0EB2F8D2F07C022
:101A40004430510569F080F046305105B1F76E2FF2
:101A50008DCFE22F7B2F812FFACFE22F7D2FF7CF73
:101A6000EB2F822F712FF3CF7B2F822FED2FEFCF14
:101A700041E00C94A30C30E020E0869F212D969F3E
:101A8000200D311D1124C9010895AC01823091054A
:101A900008F408959FEF413E8EE1580740F49A0103
:101AA00095E0369527959A95E1F798E0920F61E0D9
:101AB000E62FE90FFF27FF1F9F0135952795822FFE
:101AC000229FF001239FF00DF00D11244E175F07A8
:101AD00038F49FEF920F961758F78FEF860F0895FF
:101AE0002F3FE9F361E0620FF6CFEF92FF920F9381
:101AF0009701201B31092F3F310519F010F02FEF0E
:101B000030E02095382F320F08F43FEF832F0F91EC
:101B1000FF90EF9008950C94380D46E050E06CE192
:101B200070E084E294E00C94AC2B46E050E06CE171
:101B300070E084E294E00C94CA2BE4E2F4E085E0E7
:101B400080838091390290913A02A0913B02818377
:101B50009283A3838FE784838FEF85830C94950D05
:101B600080E008950F931F93CF93DF93C82FD62F54
:101B70008A010E94B00D9CE0C99FB0011124605001
:101B80007F4F6D0F711DFB0190819F3F29F0F80180
:101B9000E80FF11D90838F5FDF91CF911F910F911F
:101BA0000895E0910203F09103030994E091FE028D
:101BB000F091FF0209942F923F924F925F926F92A1
:101BC0007F928F929F92AF92BF92CF92DF92EF92CD
:101BD000FF920F931F93CF93DF93CDB7DEB72B9771
:101BE0000FB6F894DEBF0FBECDBF8C832B015F8391
:101BF0004E83FB01F0818BE0F89F802D11248983B7
:101C0000855F8A838B83863310F025E32B833091A5
:101C10002E043D839981892F90E09B878A87880FC6
:101C2000991FFC01E050FF4F6F01FC818F2F90E066
:101C30009C012F5F3F4F39872887EB81FA85FE177C
:101C4000F0F081E02A81253308F080E02B960FB672
:101C5000F894DEBF0FBECDBFDF91CF911F910F91E2
:101C6000FF90EF90DF90CF90BF90AF909F908F90BC
:101C70007F906F905F904F903F902F900895EA85EE
:101C8000FB85E656FE4F8081F2019181892301F1A7
:101C9000209025043090260428853985225D3B4F0D
:101CA00039013C81398310E029813D812317C8F037
:101CB00020912704129F112D1124B101812F0E9420
:101CC0008B0D462F282F672F8A859B850E94D60D66
:101CD0008A859B8501969B878A8792E0C90ED11CD5
:101CE000ACCFF30181913F01F601A0A8A81ABB086F
:101CF00081A8F3018781881A9908AA9C9001AB9C5E
:101D0000300D300D1124889CC001899C900D900DE0
:101D10001124820F931F0E94450D082FF301EE0F2F
:101D2000FF1FEE52F44060912804858996890E9435
:101D30003B0D7C019401A501B101812FEE81FF8152
:101D400009951B01F981FF5FF983182FADCF209111
:101D50002E0431E0231B08F420E045E75DE0BC01E0
:101D6000822F0C94DB0DBF92CF92DF92EF92FF9205
:101D70000F931F93CF93DF937C01FC01C0818BE015
:101D8000C89FC02D11241BE01C0F012F163308F033
:101D900005E36091250470912604809127040E9438
:101DA0008B0DD62EC72EB82ED0E0C01770F081E074
:101DB000153308F080E0DF91CF911F910F91FF90D4
:101DC000EF90DF90CF90BF900895FE01E656FE4F52
:101DD0008081F7019181892331F02B2D4D2D6C2DC0
:101DE000CE010E94D60D2196E0CFE0910003F09144
:101DF00001030994CF92DF92EF92FF920F931F930A
:101E0000CF93DF93CDB7DEB728970FB6F894DEBF38
:101E10000FBECDBF182F062FF42E0E949F178823C8
:101E200009F44BC0FF2009F457C0AE014F5F5F4F6C
:101E3000602F812F0E94B20DF82EE0904F030F2DDE
:101E400010E0C8018E0D911D099764F188E090E0C3
:101E50006C01C01AD10AB801605B7C4FA60180E515
:101E600093E00E94A32BB801685A7C4FA60188E535
:101E700093E00E94A32BA601440F551FB801660FE3
:101E8000771F68597C4F88E693E00E94A32BB80126
:101E9000605A7C4FA60180E693E00E94A32BEA944F
:101EA000E0924F0310914F03DE01119640E0842F22
:101EB000810FF41213C080934F0328960FB6F89445
:101EC000DEBF0FBECDBFDF91CF911F910F91FF906D
:101ED000EF90DF90CF900895F12CAFCF5D91252F3B
:101EE00030E090E0BC01615B7C4FF901EE0FFF1F19
:101EF000E05DFE4F0081FB010183220F331FF901DA
:101F0000E050FF4F21A9FB012187518B880F991FBA
:101F1000FC01E15BFC4F128E118E4F5FC8CF08951C
:101F20000E9405040C948F0F08950895CF93DF93BA
:101F3000FC01C0818BE0C89FC02D1124D5EFDC0FC0
:101F4000C63308F0C5E36C2F8D2F0E94940F6C2FC1
:101F50008D2FDF91CF910C94950F4F925F926F92DE
:101F60007F928F929F92AF92BF92CF92DF92EF9229
:101F7000FF920F931F93CF93DF93CDB7DEB7649794
:101F80000FB6F894DEBF0FBECDBF6091780370919D
:101F9000790380917A0390917B030E9461246B0105
:101FA0007C010E9446244B015C0180927803909250
:101FB0007903A0927A03B0927B03A0914F03EFE4E0
:101FC000F3E08A2F90E04FEF5FEF60E070E04C1994
:101FD0005D096E097F09A91333C080934F03809177
:101FE0007C0310E0811108C080912404182F137025
:101FF00019F0182F1695169580912502813009F455
:1020000049C0882381F1823009F456C1833009F434
:102010005EC164960FB6F894DEBF0FBECDBFDF91F0
:10202000CF911F910F91FF90EF90DF90CF90BF90D5
:10203000AF909F908F907F906F905F904F9008959A
:10204000218D328D2901712C612C441555056605B1
:10205000770520F481509F5F3296BDCF2C0D3D1D3A
:10206000328F218FF8CF1092260280922A0490920C
:102070002B04A0922C04B0922D0489E2EFE4F3E04B
:10208000AEE2B4E001900D928A95E1F781E0809391
:102090002502BFCF80912902181323C090912404F8
:1020A000937020912A0230E081E09217130609F420
:1020B00080E081708093280280912904909127020A
:1020C000981739F08093270240E060E080E00E949A
:1020D000F50E173088F4E12FF0E0EF5EF34D0C942D
:1020E0009D2B81E0E6CF80912802882359F040E0C3
:1020F00060E080E00E94F50E80E004C086E292E09D
:102100000E94B30E909126029F5F90932602811148
:10211000CFC082E080932502809128028111C8C03F
:10212000112309F4D2C00E94900F86E292E06496D7
:102130000FB6F894DEBF0FBECDBFDF91CF911F91D8
:102140000F91FF90EF90DF90CF90BF90AF909F9056
:102150008F907F906F905F904F900C94960F86E2D7
:1021600092E00E94A70ECECF909126020BE0909FA6
:10217000000D112440E56FE78FEF0E94F50E8DE012
:10218000ECE3F2E0DE01119601900D928A95E1F701
:10219000CE0101967C016E019EE0C90ED11CF701B3
:1021A00081917F0120E040E06FEF90E00E94D60D2A
:1021B000CE14DF04A1F781E0053308F4A3CF9CCF50
:1021C000909126020BE0909F000D112444E66AEFE7
:1021D0008FEF0E94F50E84E1E9E4F2E0DE01119652
:1021E00001900D928A95E1F7CE0101967C016E0176
:1021F00095E1C90ED11CF70181917F0120E04FEFDD
:102200006FEF90E00E94D60DCE14DF04A1F7D3CF7C
:10221000909126020BE0909F000D112446EF6DEC8B
:1022200089EB0E94F50E8FE0EDE5F2E0DE011196FC
:1022300001900D928A95E1F7CE0101967C016E0125
:1022400090E1C90ED11CF70181917F012FEF40E091
:1022500060E090E00E94D60DEC14FD04A1F7ABCF36
:10226000909126020BE0909F000D11244AE96FEF38
:102270008AE90E94F50E80E1ECE6F2E0DE011196BB
:1022800001900D928A95E1F7CE0101967C016E01D5
:1022900091E1C90ED11CF70181917F0120E04FEF40
:1022A00060E090E00E94D60DEC14FD04A1F783CF0E
:1022B000112309F4AECE37CF109329028091240464
:1022C000837080932A020E94D10D83E0E0CE60915A
:1022D0002A0470912B0480912C0490912D040E946B
:1022E0006124603171058105910508F492CE109248
:1022F00025028FCEE091FC02F091FD02099510922B
:102300002E048FEF9FEF909348048093470490939F
:102310004A048093490490934C0480934B04909317
:102320004E0480934D049093500480934F049093F7
:1023300052048093510490935404809353049093D7
:1023400056048093550410924F0390936903809331
:10235000680390936B0380936A0390936D0380935B
:102360006C0390936F0380936E039093710380933B
:10237000700390937303809372039093750380931B
:10238000740390937703809376030E94B6228111A1
:1023900004C00E945B230E949D0D0E948D0D8091C0
:1023A00024048C7F11F40C949D0D0895CF93C82FB5
:1023B000882329F040E060E080E00E94F50EC093A1
:1023C0007C03CF9108959091240421E0922790936B
:1023D00024041092250281110C94950D089581E03A
:1023E0000C94E31190912404937099F0811109C029
:1023F00094609093240410922502662351F00C946B
:10240000950D873010F09861F4CF880F880F982BC6
:10241000F0CF089561E00C94F211682F909124049C
:102420009695969581E0890F873008F081E00C94AD
:10243000F21181E00C940D12682F9091240496956E
:1024400096958FEF890F09F486E00C94F21181E0E4
:102450000C941C1290912404937049F080932504ED
:10246000609326044093270421110C94950D089540
:10247000A4E2B4E01196EC911197F0E0282F1396A6
:102480004C91139712966C91CF0108960C942A12D6
:1024900081E00C943812E4E2F4E09181282F43812A
:1024A0006281E92FE850FF0BCF010C942A1281E0E2
:1024B0000C944B12E4E2F4E0628120E1620F08F434
:1024C0006FEF9181282F4381892F90E00C942A127D
:1024D00081E00C945A12E4E2F4E0628120E1621B94
:1024E00008F460E09181282F4381892F90E00C94BB
:1024F0002A1281E00C946B12E4E2F4E0438120E1C3
:10250000420F08F44FEF9181282F6281892F90E0CC
:102510000C942A1281E00C947C12E4E2F4E04381F2
:1025200020E1421B08F440E09181282F6281892F2D
:1025300090E00C942A1281E00C948D1220912804D2
:1025400030E1230F08F42FEF2093280481110C941D
:10255000950D089581E00C949E122091280430E19D
:10256000231B08F420E02093280481110C94950D7E
:10257000089581E00C94AD120895FC01EE0FFF1F49
:10258000E80FF91FE95AFB4F6183408322830895C6
:10259000E7E5F4E0818360834283339694E0E63F8D
:1025A000F907C1F7089565E370E087E594E00C94BE
:1025B0005A13FA01811101C0FB0109940F931F9373
:1025C000CF938C01FB01C281CC2309F471C00E941E
:1025D000EE2182720A3CFCE51F0709F460C048F551
:1025E000063CECE51E0709F455C078F4043C9CE574
:1025F000190709F443C008F048C0033C1C45D9F151
:102600008C2FCF911F910F91089549E752E168E611
:1026100072E1083C9CE51907A9F148E452E167E53D
:1026200072E1093C1C4570F148E652E169E772E14C
:1026300029C00E3CFCE51F07B9F1A0F449EB52E1BB
:102640006AEA72E10C3CECE51E07E1F04AE852E16F
:102650006BE972E10D3C1C45A8F04AEA52E169EBD6
:1026600072E110C0073D8CE5180718F00E351D45C6
:1026700039F6C0E0C5CF0E94EF11FBCF47E252E12F
:1026800069E172E10E94D912F4CF49E152E167E2B7
:1026900072E1F8CF47E552E168E472E1F3CF4BE92C
:1026A00052E16AE872E1EECF81E00E940A12E1CFC6
:1026B000C1E0A6CF6A9A4EB14B7F5EB15460EFB7CE
:1026C000F8949B01220F331F260F371F280F391F45
:1026D0002817390741F4EFBF8FE594E00197F1F730
:1026E00000C000000895DC016D91CD0178E05EB975
:1026F000000000C067FF4EB9660F000000C000C0B8
:1027000000C04EB900C07A9591F7E2CF0F931F93A6
:10271000CF93DF93C42FD22FFC0182818823C9F08D
:1027200040937F030E943A2490937E0380937D031D
:1027300080E28C0F883008F050C0C77081E001C083
:10274000880FCA95EAF7DF91CF911F910F910C94F2
:10275000A71910917F03141335C080917D039091C8
:102760007E030E945224883C910560F5C0E2CD0FA3
:102770001D17B9F080E2810F883040F4177081E0B6
:1027800001C0880F1A95EAF70E94AE19C83048F4C4
:1027900081E09D2F977001C0880F9A95EAF70E94FB
:1027A000A719802F0E949F19C830B8F4D77081E014
:1027B00001C0880FDA95EAF7DF91CF911F910F9151
:1027C0000C94AE1980E28C0F883038F4C77081E029
:1027D00001C0880FCA95EAF7EFCFDF91CF911F9123
:1027E0000F9108950F939C01CB01243F4CE53407D2
:1027F00059F1A8F4293DFCE53F0701F12A3D4CE5DC
:102800003407D1F1283D3C4591F406E221EE41EE3A
:1028100068ED7CE50E94861380E00F910895263FC5
:10282000FCE53F07E9F0B0F0273F3C45F9F0FC013B
:102830008281882339F110927F03EFCF07E225EEE2
:1028400045EE69ED7CE5E6CF06E221EE40EE64EF71
:102850007CE5E0CF07E225EE44EE65EF7CE5DACFDC
:1028600006E221EE42EE66EF7CE5D4CF07E225EEEC
:1028700046EE67EF7CE5CECF08E221E045EE6AED5B
:102880007CE5C8CF81E0C9CFCF93DF93EC01FB019A
:102890008281882309F419C1C230FCE5DF07C0F149
:1028A000C6319CE5D90730F09E012B5F3C452930AD
:1028B000310570F50E94C92290931304809312048D
:1028C000C031ECE5DE0709F4CFC008F05BC0C830CA
:1028D0008CE5D80709F4B6C088F5C430ECE5DE070E
:1028E00009F4A8C0C0F4C2308CE5D80709F49CC034
:1028F000809112048260C330DC4509F498C0809155
:102900001204909113040E94D7220E942E1C80E092
:10291000DF91CF910895809112048061C630ECE57B
:10292000DE0709F484C0809112048860C730DC455A
:1029300008F47DC080911204806279C0CC308CE5AF
:10294000D80709F489C070F4809112048C60CA30F1
:10295000ECE5DE0709F46BC008F478C0809112043E
:102960008E7F65C0CE308CE5D80709F479C08091A0
:1029700012048B7FCF30DC4508F459C080911204DB
:102980008F7E55C0CC3FECE5DE0709F457C030F52B
:10299000C3318CE5D80709F46FC078F4C131ECE598
:1029A000DE0709F465C0C231DC4509F0A8CF0E94FA
:1029B0002E1C809112048F773AC0C5318CE5D80760
:1029C00009F462C008F476C0809113048160CB3FA3
:1029D000DC4509F094CF8093130491CFC115FDE538
:1029E000DF0709F44DC088F4809113048D7FCE3F3A
:1029F0009CE5D90781F3809113048E7FCF3FDC459E
:102A000050F3809113048360E6CFC230FDE5DF0709
:102A100009F459C008F444C080E0C330DD4509F032
:102A20006ECF0E945D236BCF8091120481608093F2
:102A3000120465CF809112048460F9CF8091130451
:102A40008260C9CF809112048064F1CF0E942E1C55
:102A5000809112048068EBCF809112048D7FE7CFC4
:102A600080911204877FE3CF809112048F7DDFCFA6
:102A7000809112048F7BDBCF80911204837FD7CFAC
:102A8000809113048C7FA7CF8091120482FB992739
:102A900090F921E0922790FB82F990FB83F9C7CF50
:102AA00080911304982F909591708E7F892B90FBC5
:102AB00081F991CF0E942E1C90911204892F97FBCF
:102AC00087F98058B4CF81E0ACCF81E021CFCF939C
:102AD000DF93EB0186319C4511F50E94EE219A812E
:102AE000992399F08A7A91E009F490E09093800319
:102AF000811109C089E20E94A8210E94412280E040
:102B0000DF91CF91089585E3F6CF80918003811105
:102B100004C089E20E94AF21F0CF85E3FBCF81E0C2
:102B2000EFCFCF93DF93EC0181E0898B8F810E94FF
:102B3000F12188850E9404220E944122EA81FB81C2
:102B4000309739F06C897D89CE010696DF91CF915F
:102B50000994DF91CF910895CF93DF93EC018881A1
:102B6000823039F4FB01828193810E94650481E007
:102B70008B87DF91CF910895FC018081813029F40A
:102B8000FB01808191810C946504823021F4FB016A
:102B900082819381F8CF0895FC018081813029F4EE
:102BA000FB01808191810C947A04823021F4FB0135
:102BB00082819381F8CF0895EF92FF920F931F9334
:102BC000CF93DF93EC018A85811134C0EB80FC80C8
:102BD00087E5F81A26E12E9DC0012F9D900D112446
:102BE000DC01A153BE4F1496ED91FC9115973097DF
:102BF00031F054966D917C918B529E4F099586E1F0
:102C00008E9D80018F9D100D112401531E4FF801E0
:102C100087810E94F721F80180850E940A220E9484
:102C20004122188219861B861E821D821092820301
:102C300010928103DF91CF911F910F91FF90EF9040
:102C40000895DF92EF92FF920F931F93CF93DF933C
:102C50007C01FB018281882391F080912B028F3FC0
:102C600071F0CFECD1E010E000E0DD24D39480914E
:102C70002B02082E000C990B8017910744F4DF916A
:102C8000CF911F910F91FF90EF90DF9008958E816B
:102C90008823D9F089859A858E159F0539F480910E
:102CA0008103909182038E159F0579F0DF86FC8663
:102CB000EB868989811103C0CE010E949115CE0156
:102CC00006960E94DC150E9411220F5F1F4F669628
:102CD000CECFEF92FF920F931F93CF93DF937C01A0
:102CE00097558F3F910509F0D8F520912B02022EC0
:102CF000000C330B2817390714F480932B02FB01C7
:102D0000228136E1389F8001399F100D1124E8019E
:102D1000C153DE4F288B92818E81992349F1FA8627
:102D2000E9868F5F8E830E943A249E878D870E945A
:102D300024228F830E94EE2188870E940122988599
:102D4000892B8887E881F981309731F06C897D89FA
:102D5000C8018B529E4F0995F0928203E092810345
:102D600081E0DF91CF911F910F91FF90EF90089537
:102D70008823B1F38989882399F3C8018B529E4F28
:102D80000E94DC15EDCFEF92FF920F931F93CF932C
:102D9000DF9380912B0210E006E18F3FC1F5DF91B8
:102DA000CF911F910F91FF90EF900895029FF00136
:102DB000039FF00D1124E153FE4FE288F388E114E4
:102DC000F10419F488ECE82EF12C029FE001039F36
:102DD000D00D1124C153DE4F8E818823B9F08D852B
:102DE0009E850E945224E816F90680F4109F700117
:102DF00011248989811105C0C70181539E4F0E940A
:102E00009115C7018B529E4F0E94DC151F5F212F29
:102E100030E080912B02082E000C990B821793074B
:102E20002CF6BDCF90938803809387030895E0919B
:102E30008703F0918803309721F00190F081E02D15
:102E4000099480E00895E0918703F091880330971A
:102E500011F480E008950190F081E02D0995089526
:102E6000E0918703F0918803309721F00280F3818D
:102E7000E02D09940895E0918703F091880330973D
:102E800039F022E0DC012C930480F581E02D0994D7
:102E9000089520918503309186032817390771F032
:102EA0009093860380938503E0918703F0918803D4
:102EB000309721F00680F781E02D09940895209144
:102EC0008303309184032817390771F090938403AA
:102ED00080938303E0918703F0918803309721F07A
:102EE0000084F185E02D099408950E9446246093A2
:102EF000960370939703809398039093990360933C
:102F00009203709393038093940390939503089591
:102F100085B7806885BF85B7806885BF08950895A7
:102F200008950C948F170C9402040E9488178EEA5F
:102F300092E20E94C5240E9490170C94911781E0A0
:102F400008950C949F17089508950E94A3170C9458
:102F5000A4170E9431240E9420090C9493178F9289
:102F60009F92AF92BF92CF92DF92EF92FF920F9318
:102F70001F93CF93DF93CDB7DEB72A970FB6F894A0
:102F8000DEBF0FBECDBF0E945E0981110E94751782
:102F90005AE8852E53E0952E10E000E0E02E802FB9
:102FA0000E94F7085C01F401C190D1904F01C8164E
:102FB000D906B1F40F5F1F4F0430110579F78FEF79
:102FC00089838A831B820E943A248160782F9D83A3
:102FD0008C8349815A816B818D810E9469183DC023
:102FE0008091060481FD0E940009C6018A259B2567
:102FF000F12CCC24C394D12C9C012C213D21232BDA
:1030000009F44DC00E94A11795012C213D21BB243C
:10301000B394232B09F4B12C882379F0FE82EF823C
:10302000B8860E943A248160782F9A8789874E81DA
:103030005F8168858A850E946918000F111FF80159
:10304000E657FC4F80819181C826D926D182C08263
:103050004B2D6F2D8E2D0E94FA0E0E94AD0F0E94F7
:10306000890B0E941717909189038917F9F00E9424
:103070001717809389032A960FB6F894DEBF0FBE08
:10308000CDBFDF91CF911F910F91FF90EF90DF9017
:10309000CF90BF90AF909F908F900C949F06F39429
:1030A000CC0CDD1CFCE0FF12A7CF84CF2A960FB614
:1030B000F894DEBF0FBECDBFDF91CF911F910F916E
:1030C000FF90EF90DF90CF90BF90AF909F908F9048
:1030D0000895DF92EF92FF920F931F93CF93DF93A8
:1030E000CDB7DEB72B970FB6F894DEBF0FBECDBFBE
:1030F0007A878B87F42E052F162FE72ED82E611195
:103100000E9411221E821D827E2DEC82DD824F2DB7
:10311000502F612F8D2D9E812B960FB6F894DEBF18
:103120000FBECDBFDF91CF911F910F91FF90EF9018
:10313000DF900C94A41EFC01808191810C947A2173
:10314000CF93C82F882309F48BC08238C1F40E9422
:10315000171781FD85C089E30E94A8210E944122A2
:103160002FEF81EE94E0215080409040E1F700C0C5
:10317000000089E30E94AF21CF910C944122833853
:10318000A1F40E94171780FD6BC083E50E94A8215F
:103190000E9441222FEF81EE94E021508040904028
:1031A000E1F700C0000083E5E5CF8438A1F40E9478
:1031B000171782FD55C087E40E94A8210E94412272
:1031C0002FEF81EE94E0215080409040E1F700C065
:1031D000000087E4CFCF8CEF8C0F813A90F46C2FF6
:1031E00080912C0290912D020E947423882329F053
:1031F0008C2F0E94AF210E9441228C2F0E94A82177
:10320000BBCF80E28C0F883048F4C77081E001C0EA
:10321000880FCA95EAF70E94F121AECFEBE5EC0FDB
:10322000E33040F4F0E0EE5CFC4F808190E0CF9121
:103230000C944917E8E5EC0FE73150F4F0E0EE0F9D
:10324000FF1FEC5FFC4F80819181CF910C945F1741
:10325000CD3E30F08C2F0E949B0ACF910C946E0BC8
:10326000CF910895882309F452C0823871F40E94E6
:10327000171781FF4CC089E30E94A8210E944122B8
:1032800089E30E94AF210C944122833859F40E94B3
:10329000171780FF3CC083E50E94A8210E944122AD
:1032A00083E5EFCF843859F40E94171782FF2FC0AF
:1032B00087E40E94A8210E94412287E4E2CF9CEF8C
:1032C000980F913AF0F290E2980F983050F487708E
:1032D00091E001C0990F8A95EAF7892F0E94F721A2
:1032E000D2CF9BE5980F933020F490E080E00C94CF
:1032F000491798E5980F973120F490E080E00C94FE
:103300005F178D3E20F00E94F50A0C946E0B089515
:103310001F93CF93DF93182FEB010E94A0182097E3
:1033200031F4812FDF91CF911F910C9432198FE9E5
:103330009FE00197F1F700C000002197F0CF70E007
:1033400060E0893311F460E570E00C9488198823FB
:1033500021F00E94F1210C9441220895882321F04C
:103360000E94F7210C9441220895BF92CF92DF92E0
:10337000EF92FF920F931F93CF93DF936C01D62FA1
:10338000C72FFC011281058102950F700E94C62192
:10339000E82E8823A1F0E12E112389F08C2F807F65
:1033A000803429F080E28D0FE12C883040F082E0FB
:1033B0000E9492220E94C62191E0E82EE926BC2EAE
:1033C000B2949FE0B922EB2DF0E0E85EF34D0C944F
:1033D0009D2B0C2F0F70C07F11F00295007F1123E1
:1033E000A9F0002359F080E28D0F883010F0D11140
:1033F00009C0802F0E94F1210E9441228D2F0E943E
:10340000A01814C0802F0E940422F6CF8D2F0E9496
:103410003219002359F080E28D0F883010F0D1115D
:103420002CC0802F0E94F7210E9441222B2D285072
:10343000330B2430310520F40E9417170E949F0699
:10344000EE2009F49EC10E94C22180FD9AC1F601BE
:1034500012820E94BC210E944820C6010E94E21BE9
:103460000E94BC21DF91CF911F910F91FF90EF90AF
:10347000DF90CF90BF900C946920802F0E940A2289
:10348000D3CFFC2FFF70FF2EC07FC03219F0F29413
:1034900080EFF822DD2369F0D13049F1112391F159
:1034A000002351F1F601858180FFA8CF8F708583BD
:1034B00023C0112381F0011106C00E9424228F290C
:1034C0000E94A719B3CF0130C1F70E9424228F298F
:1034D0000E942A22ABCF011106C00E9437228F2DF5
:1034E0000E94AE19A3CF013009F4A0CFF6CF11236B
:1034F00029F0063008F09ACF8F2DE2CF053008F082
:1035000095CFEDCF002359F3D93349F4FFEF27EEE0
:1035100033E0F15020403040E1F700C000008D2F33
:103520000E94321983CF8C2F86958695837069F01F
:10353000813009F07BCF8D2F9C2F9370111102C029
:1035400090E080E00E945F1771CF8D2F9C2F9370C9
:10355000111102C090E080E00E94491767CF8D2FC3
:10356000112329F00E949B0A0E946E0B5FCF0E94DC
:10357000F50AFACF8C2F837009F041C0111156CF94
:103580004D2F429546954770440F440F0D2F0F70F5
:1035900010E030E020E0042E04C0000F111F221FB5
:1035A000331F0A94D2F760E070E0CB01D4FF0FC064
:1035B0006FE070E080E090E004C0660F771F881F26
:1035C000991F4A95D2F76095709580959095C6950C
:1035D000C695C370602B712B822B932BC23049F0A0
:1035E00058F4C13019F00E94DA1F20CF0E94C81F82
:1035F0001DCF0E94EC1F1ACF0E94C61F17CF8695C1
:10360000112311F08C2F8170882309F40FCF4D2FD7
:10361000429546954770440F440F0D2F0F7010E0F0
:1036200030E020E0042E04C0000F111F221F331FC2
:103630000A94D2F760E070E0CB01D4FF0FC06FE0D6
:1036400070E080E090E004C0660F771F881F991F2C
:103650004A95D2F76095709580959095C695C695D8
:10366000C370602B712B822B932BC23049F058F41E
:10367000C13019F00E94BF20D9CE0E94AD20D6CE15
:103680000E94D120D3CE0E940220D0CECF70112331
:1036900029F08C2F0E9448208D2F12CF8D2F0E9451
:1036A000AE198C2F0E946920C1CED23F89F160F4FF
:1036B000D03FC9F0D13F29F1112309F442C00111D3
:1036C0009DCE8C2F8F7121C0D33F39F1D43FA1F70C
:1036D000112369F1CF718C2F0E94482063E08C2F59
:1036E0000E947722A3CE112341F0053008F09ECE30
:1036F0008C2F8F710E948C2099CE063008F096CEC8
:10370000F7CF8C2F8F71112369F20E9448208ECE43
:103710008C2F8F711123C9F3C5CF112329F08C2F62
:103720008F710E94332082CE0E940E207FCE81E0D6
:103730000E949222023008F479CE82E00E94922206
:1037400075CE002359F0D93309F0E9CE8FEF97EE0B
:10375000E3E081509040E040E1F7DFCE8C2F8F71A5
:10376000A1CF4C2F4F706D2FC6010E94A7060E945B
:103770003E1F5CCE4C2F4F706D2FC6010E94AA06D3
:1037800055CEDF91CF911F910F91FF90EF90DF9079
:10379000CF90BF9008950F931F93CF93DF93EC01C9
:1037A000688179818A810E9484218C010E94E320B2
:1037B0000E94C51FB801CE01DF91CF911F910F91DB
:1037C0000C94B519CF93DF93EC018B819C81892BED
:1037D00029F08881998189238F3F59F4DF91CF9116
:1037E0000895CE010E94CB1BCE01DF91CF910C94A6
:1037F000D204CE010E94F7048111F3CF0E94C621AA
:10380000882361F38A81882349F382E0DF91CF9195
:103810000C949222882321F00E9404220C944122CD
:103820000895882321F00E940A220C9441220895D1
:1038300090E080E00E94491790E080E00E945F17CE
:103840000E9411220E9421220E9441220E94950C76
:103850000C946E0B0E94B6210C94181C0E94FE2141
:103860000C942A1CE92FE295EF70E250EE3070F4D0
:10387000F0E0E85DF34D0C949D2B803F19F020F4AF
:10388000883E20F481E00895843FE1F380E00895CC
:10389000883EC0F3813FD1F7F5CF93FB882780F9AD
:1038A00008950E947A210C94321CCF93DF9300D0AC
:1038B00000D00F92CDB7DEB70F900F900F900F9002
:1038C0000F90DF91CF910895CF93DF9300D000D078
:1038D00000D0CDB7DEB726960FB6F894DEBF0FBE88
:1038E000CDBFDF91CF9108951F93CF93DF93C09108
:1038F0009B0316E080919C038C1304C0DF91CF9151
:103900001F910895D0E01C9FF0011D9FF00D112420
:10391000E356FC4F4081518162817381848195819E
:103920000E94641C2196C770E5CF4091CD03509151
:10393000CE036091CF037091D0038091D103909119
:10394000D2030C94641C1F93CF93DF938091D20316
:10395000807FA9F48091CF03882389F080919B0315
:10396000C0919C036091CD037091CE03A091D003D0
:10397000B091D103D62FD72316E0C81304C0DF912E
:10398000CF911F91089590E0109711F0DF3F19F447
:1039900001968770F2CF189F9001199F300D112466
:1039A000F901E356FC4F41814713F2CF40814613A2
:1039B000EFCF42814111ECCF438154814A1B5B0B15
:1039C000483C510528F78091D2038F708061809325
:1039D000D203F901EE55FC4F80818F7080618083A6
:1039E0008DEC93E00E94E21BDF91CF911F910C942C
:1039F000741CAF92BF92CF92DF92EF92FF920F931F
:103A00001F93CF93DF93CDB7DEB761970FB6F894CE
:103A1000DEBF0FBECDBF8C0185E0F801DE011D9633
:103A200001900D928A95E1F7F80140815181E28081
:103A30008DECC82E83E0D82E6091D0037091D10315
:103A40006115710509F461C19091CD032091CE03F8
:103A5000892F82238F3F09F458C1A380B480F0904E
:103A6000CF03F501E61BF70BFF2009F4FCC08091A2
:103A7000D203382F307FE83CF10508F0B2C0311195
:103A800079C0FE2C251323C0941321C0E1101FC060
:103A90008F7080618093D2030E94951CC6010E94A2
:103AA000E21B8091D203F80185838F2D61960FB6BA
:103AB000F894DEBF0FBECDBFDF91CF911F910F9164
:103AC000FF90EF90DF90CF90BF90AF900895AB281C
:103AD00029F0842F85238F3F09F033C180E0F82F30
:103AE000F170DF2E80FF3CC080919B0320919C03EE
:103AF00036E0821315C04D875E878D859E850E94B6
:103B00007A21292F22952F702230F0F0243018F5D9
:103B10009F70F1F0F8019581907FD1F4D12C1EC0F7
:103B200090E0389FF001399FF00D1124E356FC4FCF
:103B30006181651306C06081641303C062816E11E8
:103B40000FC001968770D5CF9F7011F0882331F395
:103B5000805E883018F3C8010E94E21BFD2CA5CFBF
:103B6000EE2009F4A2CF8091D20381608093D2032A
:103B7000F12C9BCF251306C0941304C0F801EE204E
:103B800009F48DC04D875E878D859E850E94511CEE
:103B9000882319F1EE2009F18091D203803270F070
:103BA0002091CD033091CE0338872F831986BB86B1
:103BB000AA868C87CE0107960E94E21B86E0F80158
:103BC000ADECB3E001900D928A95E1F70E94A31C41
:103BD0000E94951CFF24F39468CFC8010E94E21B49
:103BE000F9CF311113C07A2DB98AA88A6E2D89892F
:103BF0000E94551C8DEC93E00E94E21B86E0F601CA
:103C000011928A95E9F70E94951CB2CF25130FC037
:103C100094130DC0E1100BC0F8018583C8010E9408
:103C2000E21B86E0F60111928A95E9F73ECF4D87B7
:103C30005E878D859E850E94511C882371F2EE203F
:103C400061F28091D203803208F4B8CF2091CD0385
:103C50003091CE033A8329831B82BD82AC828E834E
:103C6000CE010196A9CFE83CF10508F041C0FE2C39
:103C7000EE2009F4B2CF25132AC0941328C08091F6
:103C8000D20380FD1BC0982F907FC1F0F80185837F
:103C9000903F31F0982F907F905F8F70892B8583B4
:103CA000C8010E94E21B86E0F801ADECB3E0019090
:103CB0000D928A95E1F70E94951CF7CE86E0F801F7
:103CC000ADECB3E001900D928A95E1F7EECE4D8711
:103CD0005E878D859E850E94511C81116FCF8091DA
:103CE000D20381608093D203C8010E94E21BDDCE23
:103CF0007A2DB98AA88A6E2D89890E94551C86E082
:103D0000F60111928A95E9F7D6CFEE2009F465CF36
:103D10004D875E878D859E850E94511CF82E8823D5
:103D200009F45BCF86E0F801ADECB3E001900D92B1
:103D30008A95E1F78DEC93E00E949B180E94A31CEA
:103D4000BACF81E08E25CBCE1F93CF93DF93CDB733
:103D5000DEB72C970FB6F894DEBF0FBECDBF4F83F2
:103D6000588769877A878B879C87CE0107960E9440
:103D7000F91C882369F08A859B85892B39F04F814E
:103D80005885842F85238F3F09F071C016E05FC0EE
:103D900086E0FE013796DE01119601900D928A951C
:103DA000E1F78A859B85892B89F38F819885892303
:103DB0008F3F61F320919C0330E0C9010196877029
:103DC000992740919B034817190671F40E942E1CF5
:103DD00010929C0310929B0386E0EDECF3E0DF0170
:103DE0001D928A95E9F7D2CF96E0929FD001939FDA
:103DF000B00D1124A356BC4FFE01319601900D92D7
:103E00009A95E1F780939C030E94741CBFCF819F19
:103E1000C001112483569C4F0E94F91C8823E9F0AD
:103E2000E0919B031E9FF0011124E356FC4F40815B
:103E3000518162817381848195810E94641C80918B
:103E40009B0390E001968770992780939B03809154
:103E50009B0390919C038913DACF2C960FB6F894AC
:103E6000DEBF0FBECDBFDF91CF911F910895698551
:103E70007A858B859C850E94641C88CFEF92FF9287
:103E80000F931F93CF93DF938C01892B81F0F12C3B
:103E9000EE24E394E8012196F8018491843770F4CC
:103EA000843008F05FC08130B1F08230A1F1DF9141
:103EB000CF911F910F91FF90EF900895853709F4EE
:103EC0004CC008F43DC09CE7980F903780F78F777F
:103ED0000E94321949C00E5F1F4FFE01849190E28B
:103EE000980F983060F48770FE2D01C0FF0F8A95FF
:103EF000EAF78F2F0E9414220E94412202C00E94E2
:103F0000A0188F2D815030F2EFE9FFE03197F1F7E3
:103F100000C00000F7CF0E5F1F4FFE01849190E2BA
:103F2000980F983050F48770FE2D01C0FF0F8A95CE
:103F3000EAF78F2F0E941A22DFCF0E943219E1CFB9
:103F40000E5F1F4FFE01C491C150D8F28FE99FE070
:103F50000197F1F700C00000F7CF0E5F1F4FFE0181
:103F6000F490CFCF0E94A0188E01CBCF08950C946F
:103F7000B61F0E94B71F6093F5037093F6038093FA
:103F8000F7039093F8030C94181C08950C94B91F30
:103F90000F931F930091F5031091F6032091F703FF
:103FA0003091F803602B712B822B932B1F910F9173
:103FB0000C94B91F0F931F930091F5031091F60312
:103FC0002091F7033091F803602371238223932318
:103FD0001F910F910C94B91F0F931F930091F5033C
:103FE0001091F6032091F7033091F80360277127B1
:103FF000822793271F910F910C94B91F0C94B61F21
:104000000C94FE1F0E9400206093F1037093F20352
:104010008093F3039093F4030C94181C60E070E019
:10402000CB010C940220611571058105910529F4DD
:1040300081E0442361F080E00895DC01CB0104C0FD
:10404000B695A795979587954A95D2F7817008956B
:10405000482F6091F1037091F2038091F3039091E6
:10406000F4030C9413200F931F9341E050E060E0A1
:1040700070E08A019B0104C0000F111F221F331F33
:104080008A95D2F7C901B8011F910F910C940220B3
:104090000F931F9341E050E060E070E004C0440FD4
:1040A000551F661F771F8A95D2F78091F103909173
:1040B000F203A091F303B091F4038A019B01082B52
:1040C000192B2A2B3B2BC901B8011F910F910C947E
:1040D00002200F931F9341E050E060E070E004C0C5
:1040E000440F551F661F771F8A95D2F7CB01BA017F
:1040F00060957095809590950091F1031091F20371
:104100002091F3033091F4036023712382239323DE
:104110001F910F910C9402200F931F9341E050E0E8
:1041200060E070E004C0440F551F661F771F8A953A
:10413000D2F78091F1039091F203A091F303B09133
:10414000F4038A019B01082719272A273B27C90165
:10415000B8011F910F910C9402200F931F930091AF
:10416000F1031091F2032091F3033091F403602BDB
:10417000712B822B932B1F910F910C9402200F9384
:104180001F930091F1031091F2032091F3033091FA
:10419000F40360237123822393231F910F910C94C6
:1041A00002200F931F930091F1031091F2032091CD
:1041B000F3033091F40360277127822793271F911F
:1041C0000F910C94022008952CE0929F800D1124F1
:1041D000982F977041E001C0440F9A95EAF78695B1
:1041E0008695869595E0899FF0011124ED52FC4F4C
:1041F00090E080E070E05191DF0111979B01082E63
:1042000002C0369527950A94E2F72170219525275B
:10421000242325272C9301968530910561F7089575
:104220002CE0929F800D1124982F9770869586958B
:10423000869525E0829FF0011124ED52FC4F50E05D
:1042400040E080E0219130E0092E02C036952795AC
:104250000A94E2F721703327042E01C0220F0A943A
:10426000EAF7822B4F5F5F4F4530510559F70895AC
:10427000BF92CF92DF92EF92FF920F931F93CF9353
:10428000DF938C01C090F103D090F203E090F30330
:10429000F090F4038091F5039091F603A091F70359
:1042A000B091F803C82AD92AEA2AFB2ACFE1D0E044
:1042B000BC2ED701C6010C2E04C0B695A7959795C4
:1042C00087950A94D2F780FD0EC0219788F7B12C0C
:1042D0008B2DDF91CF911F910F91FF90EF90DF9089
:1042E000CF90BF900895B8018C2F0E94C706019708
:1042F00061F3EECFCF93DF93EC010E943821BE0132
:10430000DF91CF910C94C7061F93CF93DF93EB01FE
:1043100090919A03992331F0CB01DF91CF911F91B6
:104320000C947A21882379F0CB010E943821182F30
:10433000682FCE010E94E420BE01812FDF91CF9132
:104340001F910C94C706CB010E941021182FF4CFA7
:10435000682F80912C0290912D020C94AA23682F33
:1043600080912C0290912D020C94AC2380912C0210
:1043700090912D020C94AE238091F903859585953B
:10438000859508958091F903877008959091F903B8
:10439000977081E009F480E008959091130492FBF6
:1043A000222720F9281751F080FB92F990931304EB
:1043B00080911204909113040C94D7220895809157
:1043C000130482FB882780F991E089270C94CD2182
:1043D00081E00C94CD2180E00C94CD2180910504E6
:1043E000089590910504892B809305040895809584
:1043F0009091050498239093050408951092050464
:10440000089580910404089590910404892B809369
:1044100004040895809590910404982390930404D3
:10442000089510920404089590910304892B8093B9
:1044300003040895809590910304982390930304B6
:1044400008951092030408958091FA030895089541
:104450000C9427229091130492FD08C09091FA03C6
:10446000981721F08093FA030C94282208958091E4
:10447000FA03882329F01092FA0380E00C94282292
:104480000895E0912C02F0912D0280910504808323
:10449000E0912C02F0912D02808190910404892BEF
:1044A0008083E0912C02F0912D0280819091030491
:1044B000892B80839091FA03992381F0E0912C025B
:1044C000F0912D028081892B808380912C02909124
:1044D0002D020E94622381110E94372280912C02BA
:1044E00090912D020C94301708950C9474229091A1
:1044F000130492FD10C098E0899F90011124622B53
:104500006093F9030E9448208091F9038595859571
:1045100085950C9475220C9448201092F90380E044
:104520000C9475229091F903809589238093F90367
:10453000282F277039F4282F082E000C330B9217E0
:10454000130621F49091130492FF07C08595859579
:1045500085950E9469200C948D22089580E008952D
:104560006FEF7FEF90E080E00C94F82B90E080E01C
:104570000E94C42B21E08A3E9E4F09F020E0822F4A
:10458000089582E090E00C94BC2B83E090E00C94C2
:10459000BC2BCF9384E090E00E94BC2BC82F82E21A
:1045A00090E00E94BC2B982F8C2FCF910895CF9331
:1045B000C92F682F84E090E00E94DA2B6C2F82E2F2
:1045C00090E0CF910C94DA2BAB01BC018FE090E02E
:1045D0000C94EC2BAB01BC0183E190E00C94EC2B30
:1045E00060E070E0CB010C94EA2260E070E0CB0167
:1045F0000E94E4220C94F0226AEE7EEF90E080E0CC
:104600000E94F82B60E082E090E00E94DA2B60E0EC
:1046100083E090E00E94DA2B1092F5031092F603EB
:104620001092F7031092F80360E084E090E00E949B
:10463000DA2B60E082E290E00E94DA2B60E085E015
:1046400090E00E94DA2B60E086E090E00E94DA2B96
:104650006FEF87E090E00E94DA2B40E050E0BA0173
:1046600088E090E00E94EC2B60E08DE090E00E94FA
:10467000DA2B40E050E0BA0188E190E00E94EC2B98
:1046800060E087E190E00E94DA2B40E050E0BA0160
:104690008CE190E00E94EC2B70E060E080E290E022
:1046A0000E94F82B40E050E0BA0188E190E00E94BF
:1046B000EC2B0C94F5220C94FC22682F8EE090E0F9
:1046C0000C94DA2B9C012E5F3F4FAC01485F5F4F8B
:1046D00080E02417350709F40895F90191919F01AD
:1046E0009923B9F38F5FF5CF662349F0FC01329629
:1046F00008962191261729F0E817F907D1F780E0ED
:10470000089581E008959C01FC0132969FEF80E0BE
:104710004191461751F09F3F19F4411101C0982F64
:104720008F5F8630A9F79F3F09F40895290F311D47
:1047300097FD3A95F90162830895FC013296089637
:104740002191261303C0DF0111971C92E817F90786
:10475000B9F708950C9483230C949D23029626E0C8
:10476000FC0111922A95E9F7089508950895809122
:10477000FE04843061F10E94E20280E00E949F0604
:1047800081E00E94D6111092070488E190E020E4B5
:104790000FB6F894A895809360000FBE2093600038
:1047A00083B7817F846083BF83B7816083BF789440
:1047B000889583B78E7F83BF0FB6F894A8958091B4
:1047C0006000886180936000109260000FBE0895C1
:1047D0000895CF930E94B5230E945E090E94E823AA
:1047E000C0E08C2F0E94F708892B31F4CF5FC430D2
:1047F000C1F780E0CF91089581E0FCCF08950E9439
:104800002E1C0E9417170E949F0680E00E94D6115E
:104810000C94E7021F921FB61F9211248F939F934F
:10482000AF93BF9380910704811113C08091F60468
:104830009091F704A091F804B091F9044196A11D5C
:10484000B11D8093F6049093F704A093F804B093FD
:10485000F904BF91AF919F918F911F901FBE1F9040
:10486000189582E084BD93E095BD9AEF97BD809343
:104870006E0008952FB7F8948091F6049091F70494
:10488000A091F804B091F9042FBF08952FB7F894C0
:104890006091F6047091F7048091F8049091F90406
:1048A0002FBF08959C014FB7F8948091F604909122
:1048B000F704A091F804B091F9044FBF821B930B49
:1048C0000895CF92DF92EF92FF922FB7F894C090A5
:1048D000F604D090F704E090F804F090F9042FBFAC
:1048E000A7019601261B370B480B590BCA01B901CA
:1048F000FF90EF90DF90CF90089578941F921FB6AD
:104900001F9211248F939F93AF93BF938091F604CE
:104910009091F704A091F804B091F9040196A11DBB
:10492000B11D8093F6049093F704A093F804B0931C
:10493000F904BF91AF919F918F911F901FBE1F905F
:10494000189581E08093E00080E28093D800109277
:10495000C9008FE19EE40197F1F700C0000087E0F5
:1049600090EBDC018093070590930805A09309055F
:10497000B0930A0588E19CE00FB6F894A89580935F
:1049800060000FBE90936000FFCF90933703809339
:1049900036030895809110040895CF93DF9300D0DB
:1049A0000F92CDB7DEB79091FE04943019F589834C
:1049B0007B836A8382E08093E9008FEF9091E80027
:1049C000815095FD06C095ED9A95F1F70000811193
:1049D000F5CF8091E80085FF0DC050E040E063E036
:1049E00070E0CE0101960E94E4268091E8008E7767
:1049F0008093E8000F900F900F90DF91CF91089572
:104A0000BC0184E00C94CD24BC0183E00C94CD2443
:104A10009C0182E08093E9009FEF8091E800915033
:104A200085FD06C085ED8A95F1F700009111F5CF5F
:104A30008091E80085FF0CC050E040E066E070E047
:104A4000C9010E94E4268091E8008E778093E800F7
:104A50000895CF93DF93EC0181E08093E9008FEF1D
:104A60009091E800815095FD06C095ED9A95F1F77B
:104A700000008111F5CF8091E80085FF14C050E05F
:104A800040E068E070E0CE010E94E4268091E800FA
:104A90008E778093E80088E0FE01A8E0B4E0019002
:104AA0000D928A95E1F7DF91CF9108958091FD04F1
:104AB000811109C00E9474280E94D1288091E200CF
:104AC00084608093E20008951092FD040895089593
:104AD0000895089542E061EC81E00E94F02742E2EF
:104AE00061EC82E00C94F02780910005833009F49A
:104AF0005FC030F48130C1F1823009F49BC0089569
:104B00008A3009F487C08B3009F46DC0893009F010
:104B10004EC08091FF04813209F049C080910305A5
:104B200090910405029708F042C08091E800877FC9
:104B30008093E8008091E80082FF35C09091F300F7
:104B40008091F200029729F48091F1008B7F8130EF
:104B500021F48091F100809310048091E8008B771C
:104B60008093E8000C9424288091FF04813AF9F4A2
:104B70008091E800877F8093E80080910305909101
:104B80000405892B61F468E088E094E070E00E94FD
:104B900033278091E8008B778093E800089560E0E8
:104BA00090E080E0F3CF8091FE048111C3CF08959F
:104BB0008091FF04813AD9F7809103059091040513
:104BC000892BA9F78091E800877F8093E800809186
:104BD000E80080FFFCCF809138028093F100809143
:104BE000E8008E77BDCF8091FF04813201F780917C
:104BF000030590910405892BD1F68091E800877F09
:104C00008093E8000E942428809101058093380257
:104C10000C942E1C8091FF04813249F68091E800AB
:104C2000877F8093E8000E9424288091020580936A
:104C3000110408958091FF04813A09F0B8CF809162
:104C4000E800877F8093E8008091E80080FFFCCF38
:104C500080911104C2CF84B7877F84BF0FB6F894C8
:104C6000A895809160008861809360001092600038
:104C70000FBE80E890E00FB6F894809361009093A7
:104C800061000FBE0E9495170E9474280E94D128CF
:104C90008091E20084608093E20078940E945A2B15
:104CA0000E94A9178EE292E00E9412178091FE04E2
:104CB000853099F00E94AF170E94A517F7CF0E9488
:104CC000B7238091FC04882341F00E94E9238823C4
:104CD00021F00E94CE260E942E1C8091FE04853079
:104CE00071F30E94FF23E6CF0C947626292F3327F9
:104CF0002330310519F168F42130310509F444C03D
:104D00002230310509F445C090E080E030E020E039
:104D100025C02132310549F122323105A9F780E45D
:104D200090E022EF34E061157105C1F08BE790E06F
:104D300027E734E06130710589F0E6CF99278130AB
:104D4000910581F0009729F00297F1F6EAEEF3E081
:104D500002C0E6E2F4E0849190E09F01FA01318321
:104D600020830895EEE0F4E0F6CF89E090E02CE3B4
:104D700034E06115710591F389E090E025E534E0B8
:104D80006130710559F3C0CF82E190E025E634E04F
:104D9000E5CF8BE390E02AE234E0E0CF80E189BD0B
:104DA00082E189BD09B400FEFDCF8091D8008F7DDE
:104DB0008093D8008091E00082608093E000809131
:104DC000E00081FDFCCF0895AF92BF92CF92DF92B9
:104DD000FF920F931F93CF93DF936C01EB018A0136
:104DE0000E944328F82E811123C00115110539F0C6
:104DF000F80180819181C81BD90BC80ED91EB12C36
:104E0000A12C2097A9F08091E80085FD22C0809117
:104E1000E8008E778093E80001151105A1F0F801F4
:104E200080819181A80EB91EB182A08285E0F82E02
:104E30008F2DDF91CF911F910F91FF90DF90CF9039
:104E4000BF90AF9008950E9443288823D1F2F82E96
:104E5000EFCFF60181916F018093F1002197FFEF71
:104E6000AF1ABF0ACECFFC018091050590910605CF
:104E700086179707A0F06115710529F49091E80055
:104E80009E779093E80090E06115710551F49111BF
:104E900008C08091E80082FF34C080E00895BC0122
:104EA000F2CF8091FE048823C1F18530C1F1809159
:104EB000E80083FD30C08091E80082FDEACF809158
:104EC000E80080FFE1CF8091F3002091F200382FBD
:104ED0006115710519F02830310558F091E028303E
:104EE000310509F090E02091E8002E772093E8004A
:104EF000CBCF81918093F100615071092F5F3F4FBB
:104F0000E7CF8091FE04882341F0853041F0809105
:104F1000E80083FFBECF81E0089582E0089583E03A
:104F20000895FC0180910505909106058617970765
:104F3000A0F06115710529F48091E8008E778093C7
:104F4000E80090E06115710551F4911108C080915D
:104F5000E80082FF35C080E00895BC01F2CF809167
:104F6000FE048823C9F18530C9F18091E80083FDF2
:104F700031C08091E80082FDEACF8091E80080FF97
:104F8000E1CF8091F3002091F200382F6115710577
:104F900019F02830310558F091E02830310509F03A
:104FA00090E08091E8008E778093E800CBCF8491E9
:104FB0008093F1003196615071092F5F3F4FE6CF2A
:104FC0008091FE04882341F0853041F08091E80013
:104FD00083FFBDCF81E0089582E0089583E00895C6
:104FE000982F973028F08F708093E90081E0089522
:104FF0009093E900242F762F50E0981731F07091AC
:10500000EC002091ED005091F00021FD02C09F5F67
:10501000E8CF3091EB003E7F3093EB003091ED0014
:105020003D7F3093ED003091EB0031603093EB0029
:105030007093EC002093ED005093F0002091EE006F
:1050400027FDE5CF80E008958091FF0487FF13C01E
:105050008091E80082FF06C08091E8008B77809302
:10506000E80004C08091FE048111F2CF0895809180
:10507000FE048823D9F38091E80080FFF8CF809167
:10508000E8008E77ECCF2091E4003091E50095E6C2
:10509000A9012091EC00822F817020FF06C0809131
:1050A000E80080FF06C080E008952091E80022FD1E
:1050B0001AC08091FE04882389F0853089F08091A0
:1050C000EB0085FD0FC02091E4003091E500421710
:1050D0005307F9F29150E1F684E0089582E00895D3
:1050E00083E0089581E008950E94E2280E94EA2862
:1050F000E0EEF0E0808181608083E8EDF0E0808187
:105100008F77808319BCA7EDB0E08C918E7F8C9354
:1051100080818F7E80831092FD0408950F931F93EA
:10512000CF93DF930E94E2280E94EA28C8EDD0E0E6
:1051300088818F77888388818068888388818F7D44
:10514000888319BC1092FE041092FA041092FC0499
:105150001092FB0400EE10E0F80180818B7F8083C9
:1051600088818160888342E060E080E00E94F027CF
:10517000E1EEF0E080818E7F8083E2EEF0E08081DE
:1051800081608083808188608083F80180818E7F48
:105190008083888180618883DF91CF911F910F91F7
:1051A0000895E8EDF0E080818F7E8083E7EDF0E008
:1051B00080818160808384E082BF81E08093FD04F0
:1051C0000C948E28E8EDF0E080818E7F8083109231
:1051D000E20008951092DA001092E10008951F9203
:1051E0000F920FB60F9211242F933F934F935F931B
:1051F0006F937F938F939F93AF93BF93EF93FF939F
:105200008091E10082FF0BC08091E20082FF07C025
:105210008091E1008B7F8093E1000E94592B809167
:10522000DA0080FF19C08091D80080FF15C08091FE
:10523000DA008E7F8093DA008091D90080FF96C0DB
:1052400080E189BD82E189BD09B400FEFDCF81E026
:105250008093FE040E9456258091E10080FF19C0D2
:105260008091E20080FF15C08091E2008E7F8093E4
:10527000E2008091E20080618093E2008091D8009A
:1052800080628093D80019BC85E08093FE040E9460
:1052900068258091E10084FF2BC08091E20084FFAB
:1052A00027C080E189BD82E189BD89B5982F9170C1
:1052B00080FFFBCF8091D8008F7D8093D8008091B4
:1052C000E1008F7E8093E1008091E2008F7E8093E9
:1052D000E2008091E20081608093E2008091FA0414
:1052E000882309F449C084E08093FE040E94692564
:1052F0008091E10083FF29C08091E20083FF25C0F7
:105300008091E100877F8093E10082E08093FE043A
:105310001092FA048091E1008E7F8093E1008091E9
:10532000E2008E7F8093E2008091E20080618093B2
:10533000E20042E060E080E00E94F0278091F0000F
:1053400088608093F0000E946725FF91EF91BF91E4
:10535000AF919F918F917F916F915F914F913F910D
:105360002F910F900FBE0F901F90189519BC10929F
:10537000FE040E94642570CF8091E30087FD93E0D6
:105380009093FE04B3CF1F920F920FB60F92112489
:105390002F933F934F935F936F937F938F939F933D
:1053A000AF93BF93CF93DF93EF93FF93D091E90037
:1053B000DF708091EC00C82FC17080FDC0E81092B2
:1053C000E9008091F000877F8093F00078940E943C
:1053D000072A1092E9008091F00088608093F00025
:1053E000CD2BCF70C093E900FF91EF91DF91CF916A
:1053F000BF91AF919F918F917F916F915F914F91ED
:105400003F912F910F900FBE0F901F9018951F93F3
:10541000CF93DF93CDB7DEB7AA970FB6F894DEBF70
:105420000FBECDBF8FEF94E02091F100FC012193DE
:10543000CF01F5E087309F07B9F70E94742580916E
:10544000E80083FF1EC18091FF04909100059A300F
:1054500008F017C1E92FF0E0EA5CF34D0C949D2BA6
:10546000803899F0823809F00CC1809103058F7063
:10547000873008F006C18093E9008091EB0085FB3E
:10548000882780F91092E90006C08091FB04909172
:10549000FC04911182609091E800977F9093E8005E
:1054A0008093F1001092F1008091E8008E77E5C0C2
:1054B000882309F4D3C0823009F0E3C0809101054C
:1054C0008111D6C0809103058F702FEF280F2630F1
:1054D00008F0D7C08093E9002091EB0020FFC8C0FE
:1054E000933031F48091EB0080628093EB00C0C078
:1054F0009091EB0090619093EB0021E030E001C0CF
:10550000220F8A95EAF72093EA001092EA00809130
:10551000EB008860EACF8111B4C0109101051F77BC
:105520008091E3008078812B8093E3008091E800F4
:10553000877F8093E8000E9424288091E80080FF04
:10554000FCCF8091E30080688093E30082E011113A
:1055500083E08093FE0495C08058823008F091C0AB
:1055600080910105909102058C3D23E09207A1F501
:1055700083E08A838AE289834FB7F894DE01139629
:1055800020E03EE051E2E32FF0E050935700E49139
:1055900020FF03C0E295EF703F5FEF708E2F90E029
:1055A000EA30C0F0C7968D939D932F5F243159F751
:1055B0004FBF8091E800877F8093E8006AE270E047
:1055C000CE0101960E9433278091E8008B7780936B
:1055D000E80057C0C096E7CF6091030570910405BD
:1055E000AE014F5F5F4F0E947426BC01892B09F406
:1055F00048C09091E800977F9093E80089819A8154
:105600000E949127E1CF8038E1F58091E800877F03
:105610008093E8008091FA048093F10045CF8111D6
:1056200030C090910105923060F58091E800877F4D
:105630008093E8009093FA040E9424288091FA0451
:10564000882311F084E005C08091E30087FDFACF44
:1056500081E08093FE040E946A2513C080910105B9
:10566000813079F481E0933009F080E08093FC048C
:105670001092E9008091E800877F8093E8000E9403
:1056800024288091E80083FF0AC08091E800877F8A
:105690008093E8008091EB0080628093EB00AA96F3
:1056A0000FB6F894DEBF0FBECDBFDF91CF911F9133
:1056B00008950895CF938091FE048823A1F0C091AE
:1056C000E900CF709091EC00892F817090FD80E807
:1056D000C82B1092E9008091E80083FD0E94072A00
:1056E000CF70C093E900CF910895AA1BBB1B51E175
:1056F00007C0AA1FBB1FA617B70710F0A61BB70B42
:10570000881F991F5A95A9F780959095BC01CD01E6
:10571000089597FB072E16F4009407D077FD09D063
:105720000E94752B07FC05D03EF4909581959F4F04
:105730000895709561957F4F0895EE0FFF1F0590B6
:10574000F491E02D0994FB01DC0102C001900D925F
:1057500041505040D8F70895DC01CB01FC01F99984
:10576000FECF06C0F2BDE1BDF89A319600B40D92AD
:1057700041505040B8F70895F999FECF92BD81BDD0
:10578000F89A992780B50895A8E1B0E042E050E08A
:105790000C94AE2BDC01A40FB51F4150504048F0D3
:1057A000CB01840F951F2E910E94DB2B415050405E
:1057B000D0F70895262FF999FECF92BD81BDF89AB2
:1057C000019700B4021639F01FBA20BD0FB6F89445
:1057D000FA9AF99A0FBE08950396272F0E94DB2BA1
:1057E0000E94DA2B252F0E94DB2B242F0C94DB2B1D
:1057F0000196272F0E94DB2B0C94DA2BF894FFCF15
:105800001503200327032C03310336033B03400316
:1058100045034A034F0354035A03600366036C03B2
:10582000720373107E10AF10B410E0100811301125
:10583000E919E919411A411A931AAF1A161A161AD8
:10584000BA1A461B551B551BB11B161A161ABA1B42
:105850003D1C3D1C461C461C481C461C461C461C48
:105860003D1C3D1C4D1C461C461C4D1C302A582A14
:10587000412B582A412B8B2AAC2A412B032B0F2B6F
:10588000000102030405060708090A0B0C0D0E0FA0
:10589000101112131415161718191A1B1C1D1E1F90
:1058A00020212223242526272829FF2A2B2C2D2EB0
:1058B0000000140028003D00510065007A008E00B1
:1058C000A200B700CB00E0000015141528153D1507
:1058D000511565157A158E15A215B715CB15E0155E
:1058E000002A142A282A3D2A512A652A7A2A8E2A31
:1058F000A22AB72ACB2AE02A0040144028403D4083
:1059000051406F408E40A240B740CB40E040DC2089
:10591000B020842058202C2000200104040404041A
:10592000040404040401010404040404040404043D
:105930000401010404040404040404040401010136
:10594000010101010101010101020202020202AC96
:1059500015BC15CC15000000000000000000000080
:105960000000001902AC15BC15CC150000000000A9
:105970000000000000000000001502AC15BC15CCB2
:1059800015000000000000000000000000000011F1
:105990000200000F080000A6000000A5002808640F
:1059A0001E140A321E0300FF00FFFFFFFB03CA2480
:1059B00029250825042500250100FFFF292F303166
:1059C0003233341013222C2D2E292F303132333420
:1059D0000D0E0F101112131415162D1C1D292F302A
:1059E000313233341314151F20212B1D292F303150
:1059F000323334222C2D2E151714201D433A5C6DA2
:105A00006163726F5C002E76627300303100303259
:105A1000003033003034003035003036003037008D
:105A2000303800303900313000313100313200314E
:105A30003300313400313500313600E200E900EA4C
:105A400000B500B600B700CD008301CC008A0192FA
:105A50000194012102230224022502260227022AA0
:105A600002B300B4006F0070008182833666349701
:105A7000949667F6F5F4F1F03332C635BC12BD12D8
:105A8000C812D312E200E900EA00B500B600B70080
:105A9000CD008301CC008A019201940121022302EE
:105AA00024022502260227022A02B300B4006F0056
:065AB000700081828300FA
:00000001FF
