:100000000C9499020C94E0020C94E0020C94E0022F
:100010000C94E0020C94E0020C94E0020C94E002D8
:100020000C94E0020C94E0020C94E3280C94B729A1
:100030000C94FE230C94E0020C94E0020C94E00279
:100040000C94E0020C94E0020C94E0020C94E002A8
:100050000C94E0020C9471240C94E0020C94E002E5
:100060000C94E0020C94E0020C94E0020C94E00288
:100070000C94E0020C94E0020C94E0020C94E00278
:100080000C94E0020C94E0020C94E0020C94E00268
:100090000C94E0020C94E0020C94E0020C94E00258
:1000A0000C94E0020C94E0020C94E0020102E37272
:1000B0000103E301043230307C002B0014001A00ED
:1000C0000800150017001C0018000C001200130097
:1000D0002A006C5D04001600070009000A000B00EE
:1000E0000D000E000F0033002800E1001D001B0072
:1000F00006001900050011001000360037005200FC
:100100004C00E000E300E200015102512C0000002D
:1001100002510151500051004F002F001E021F02DA
:1001200020022102220223022402250226022702A3
:100130002F0230001E001F0020002100220023009B
:100140002400250026002700300235003800640016
:1001500034002D002E002E022D023402310238020E
:100160003502E000E300E2000151E1002C00000054
:10017000E5000151E6003900E40029004200430097
:10018000440045004A004D005F00600061005700D8
:100190002A0046003E003F004000410049004B005D
:1001A0005C005D005E005600580048003A003B00CD
:1001B0003C003D0047004E0059005A005B005500CE
:1001C0004C00E000E300E200E100025153000000B7
:1001D00002516200630054002B00005C105011506B
:1001E00012506B5D1A01AC00AB00AE000257015714
:1001F00000576C5D5F5D605D615D625D1703BE0011
:10020000BD00F900FB00F300FC00675D635D645D09
:10021000655D665DC35CAA00A900FA00F100ED000F
:10022000F200685D695D6A5D50094F0907080000CA
:10023000A800F100EF00EE00F00000000000000058
:1002400000002A2B28000000000000000000000031
:10025000000000000029000000002C1E3420212294
:1002600024342627252E362D3738271E1F202122FD
:10027000232425263333362E37381F040506070876
:10028000090A0B0C0D0E0F10111213141516171866
:10029000191A1B1C1D2F3130232D350405060708A4
:1002A000090A0B0C0D0E0F10111213141516171846
:1002B000191A1B1C1D2F3130354C000000000000A6
:1002C000000000000000000000000000000000002E
:1002D00000000000000000000000000000007E0F91
:1002E00000D4FFFFFFC700000078000101010101F9
:1002F00001010101020202020202020202030303DF
:1003000003030303030404040404040405050505AE
:10031000050606060606070707070708080808096E
:100320000909090A0A0A0B0B0B0C0C0C0D0D0D0E1A
:100330000E0E0F0F0F1010111111121213131414AF
:10034000151516161717181819191A1A1B1B1C1D24
:100350001D1E1E1F2020212222232424252626277D
:100360002829292A2B2C2D2D2E2F303132323334AF
:1003700035363738393A3B3C3D3E3F4041424344B5
:1003800045464748494A4C4D4E4F50515354555697
:1003900058595A5B5D5E5F616264656668696B6C43
:1003A0006D6F7072737577787A7B7D7E80828385BE
:1003B00087888A8C8E8F91939596989A9C9EA0A2FE
:1003C000A3A5A7A9ABADAFB1B3B5B7BABCBEC0C208
:1003D000C4C6C9CBCDCFD1D4D6D8DBDDDFE2E4E7CC
:1003E000E9EBEEF0F3F5F8FAFDFF220342004D00D1
:1003F00034003000200048006F0074007300770064
:100400006100700020005200470042000000160307
:100410004B005000520065007000750062006C00D7
:100420006900630000000403090409023B000201A3
:1004300000A0FA09040000010301010009211101D3
:1004400000012240000705810308000A0904010099
:100450000103000000092111010001227B000705B2
:10046000820320000A1201100100000008504B30E6
:100470003401000102000105010902A10185020900
:1004800001A1000509190129081500250195087524
:100490000181020501093009311581257F95027519
:1004A00008810609381581257F95017508810605A3
:1004B0000C0A38021581257F950175088106C0C098
:1004C00005010980A101850319012AB7001501263C
:1004D000B700950175108100C0050C0901A10185C7
:1004E0000419012AA002150126A0029501751081A8
:1004F00000C005010906A101050719E029E715005B
:10050000250195087501810295017508810105078E
:10051000190029FF150026FF0095067508810005C2
:100520000819012905950575019102950175039139
:1005300001C011241FBECFEFDAE0DEBFCDBF04B68D
:1005400003FE27C08091FC049091FD04A091FE045D
:10055000B091FF048730904BA740B04BD1F410927C
:10056000FC041092FD041092FE041092FF0414BECD
:1005700084B7877F84BF0FB6F894A89580916000F8
:10058000886180936000109260000FBEE0E0F8E3A5
:10059000099513E0A0E0B1E0E2E6F8E502C00590BD
:1005A0000D92AA32B107D9F724E0AAE2B3E001C064
:1005B0001D92AC3FB207E1F70E941F260C94F22B6C
:1005C0000C94000081E00E94CA110C94AA2380E0E0
:1005D0000E94CA110C94F223CF93DF93EC018CEAB2
:1005E00090E00E94890681EE0E9493198CE792E0C8
:1005F0000E941C06CE010E941C0686E892E00E9422
:100600001C0688E2DF91CF910C94931981E00E943F
:100610001C2081110DC082E00E941C2081110BC0A2
:1006200083E00E941C20811109C090E080E00895C1
:1006300081E090E0089582E090E0089583E090E00A
:100640000895CF938F559D45C1E08E30910580F47C
:10065000FC01EC50F44DDB011296CC910C94912BE3
:10066000CC2311F0C0E004C08BE892E00E94EC02C1
:100670008C2FCF910895CC23A9F38EE892E00E94AD
:10068000EC02F0CF81E992E0CC2361F3F8CF84E96A
:1006900092E0CC2339F3F3CF87E992E0CC2311F336
:1006A000EECF8AE992E0CC23E9F2E9CF8DE992E03E
:1006B000CC23C1F2E4CF80EA92E0CC2399F2DFCFE1
:1006C00083EA92E0CC2371F2DACF86EA92E0CC237F
:1006D00049F2D5CF89EA92E0CC2321F2D0CF8CEA3F
:1006E00092E0CC2309F4BECFCACFCC2371F0C091E5
:1006F0003303C111B7CF81E0809333030E942E24CE
:100700009093320380933103B3CF109233038091DF
:100710003103909132030E94462486399105A0F45A
:1007200080913003811106C081E08093300382EE16
:100730000E9494180E942E2490932F0380932E03DE
:100740008BE20E94931994CF83E00E941C2088239F
:1007500009F488CF80912C030E94272089CFCC23D5
:1007600009F480CF83E080932C037CCFCF938091DA
:100770003303882391F080913103909132030E94DA
:1007800046248639910548F00E94060380932C0385
:1007900083E00E9427201092330380913003882346
:1007A00071F080912E0390912F030E944624853F83
:1007B000914028F082EE0E942619109230030E9488
:1007C0000603C82F80912D038C1771F083E0CC2392
:1007D00039F084E0C13021F085E0C23009F086E0D4
:1007E0000E94FE11C0932D03CF91089583E00C94D5
:1007F000FE11CF930E941717C82F23ED40E064E944
:1008000081FD03C02BED40E763E990E080E00E94AA
:10081000CA0D23ED40E064E9C0FF03C02BED40E7C3
:1008200063E98CE090E00E94CA0D23ED40E064E9AA
:10083000C2FD03C02BED40E763E988E190E0CF9172
:100840000C94CA0DCF93DF939C013A9521153F413B
:1008500068F5EC01CC27D170DC01AA27B270AC019D
:10086000442754709C012227387094FF11C080E106
:10087000CD2B09F480E0AB2B09F08062452B09F009
:100880008064232B09F08068FB01DF91CF910994EC
:1008900081E0CD2B09F480E0AB2B09F08260452B81
:1008A00009F08460232B81F38860EECFDF91CF9134
:1008B0000895CF93DF93EC01805E9109089720F0B3
:1008C0006EEF7BE1209711F46BE979E1CE010E9494
:1008D00022048C2FDF91CF910C949418CF93DF9347
:1008E000EC010E942619CE01805E9109089720F044
:1008F00065E07CE1209711F462EA79E1CE01DF91B5
:10090000CF910C94220481E008950C942103089562
:100910000C9487041F93CF93DF9300D000D00F92E5
:10092000CDB7DEB749835A836B8330918F038981BA
:100930009A8131111DC06623B9F02223A9F00E94CB
:100940002C21182F682F89819A810E94D8206981D3
:100950007A81812F0F900F900F900F900F90DF9161
:10096000CF911F910C949F060E940421182FEFCF66
:100970000E942C2169817A81EDCFFC01262F4081D4
:1009800051816281738184810C948A04CF93DF93B7
:10099000EC0160E00E94BD04BE01DF91CF910C9498
:1009A00088040E94C2080E946E110C94E7080E94FD
:1009B000B7160C94E90808950E94221C0E94DB04DB
:1009C0002FEF84E39CE0215080409040E1F700C08D
:1009D00000000C9495240F931F93CF93DF938C0109
:1009E00061E00E94BD04EC01B8010E941516B80137
:1009F000CE010E948504882309F441C0B801CE01CC
:100A00000E945D168823D9F1B801CE010E94E61339
:100A10008823A9F1B801CE010E943814882379F106
:100A2000B801CE010E945B15882349F1B801CE01BF
:100A30000E94D212882319F1F8018281882361F083
:100A4000CB35FDE5DF0721F170F4C115ECE5DE07DC
:100A5000A1F0CF3DDC45C9F0C801DF91CF911F91D6
:100A60000F910C948304CC358DE5D807A1F0CD35DA
:100A7000DD4591F70E94D321EFCF0E94DC0480E096
:100A8000DF91CF911F910F9108950E944F23F7CFCF
:100A90000E94DC21E1CF0E94DF21DECFDF92EF92C6
:100AA000FF920F931F93CF93DF93E82FF0E0E65C64
:100AB000FD4FD490282F26952695269530E0F901F4
:100AC000E652FD4F0491877010E0082E02C0159584
:100AD00007950A94E2F701701127F901E653FD4FDB
:100AE000E490F12C082E02C0F594E7940A94E2F702
:100AF00091E0E922FF24F901E654FD4FC491D0E0D2
:100B000002C0D595C7958A95E2F7C170DD2701151A
:100B1000110519F081EE0E949418E114F10419F006
:100B200086EE0E9494188D2D0E949319EF2819F0DB
:100B300086EE0E942619012B19F081EE0E942619DB
:100B4000CD2B51F08CE2DF91CF911F910F91FF904F
:100B5000EF90DF900C949319DF91CF911F910F913B
:100B6000FF90EF90DF900895EF92FF920F931F9305
:100B7000CF93DF93EC01162F0AE08881882309F4D4
:100B800054C0813009F04EC08981813099F47E01D2
:100B900022E0E20EF11C8A810E949319E70121965E
:100BA000812F815050F3EFE9FFE03197F1F700C05A
:100BB0000000F7CF823041F47E0182E0E80EF11CA4
:100BC0008A810E949418EACF833041F47E01E2E0EA
:100BD000EE0EF11C8A810E942619E0CF843011F0BC
:100BE0002196DDCF2A81229690E080E0AE014F5F12
:100BF0005F4F2053330B2A30310548F0019778F2CC
:100C0000EFE9FFE03197F1F700C00000F7CF089F50
:100C1000B001099F700D1124C901860F971F29810A
:100C2000EA01E4CF0E944E05BACFDF91CF911F9128
:100C30000F91FF90EF90089560E00C94B405EF924F
:100C4000FF920F931F93CF93DF938C01F62E8AE0D0
:100C5000E82EF8018491882309F454C0813009F00A
:100C60004DC0E8012196FE018491813091F42196D6
:100C7000FE0184910E9493198E010F5F1F4F8F2DEB
:100C8000815038F3EFE9FFE03197F1F700C0000041
:100C9000F7CF823039F4E8012296FE0184910E9458
:100CA0009418EACF833039F4E8012296FE0184914A
:100CB0000E942619E1CF8430F9F6E8012296FE0160
:100CC000249190E080E0FE0131962053330B2A30CE
:100CD000310548F0019780F2EFE9FFE03197F1F735
:100CE00000C00000F7CFE89EA001E99E500D11243E
:100CF000C901840F951F2491EF01E5CF0E944E0595
:100D0000E801BACFDF91CF911F910F91FF90EF9043
:100D1000089560E00C941F0608950C948C0681E001
:100D200008950C948F06CF93C82F0E948D068C2FA8
:100D3000CF910C94910690E080E008950895972F4C
:100D400070E02CE0929F600D711D1124FB0190E377
:100D5000899FE00DF11D1124EE0FFF1FE654FF4F98
:100D6000859194910895FC01EE0FFF1FE651FD4F10
:100D7000859194910895CF93DF930E949F060E94DE
:100D8000D007EC01811520E5920708F042C08115DB
:100D900030E4930708F0BDC0883E910528F5803EF9
:100DA000910508F09DC0883A910588F4853A91052F
:100DB00008F08FC08130910509F492C0009709F4C2
:100DC0008FC0049708F08CC0D0E0C0E089C08F3B92
:100DD000910508F489C0805C9109C03CD105A0F35D
:100DE0000E94B306EC017CC08115904250F4C115FD
:100DF00081E0D80708F074C0CD3ED10528F3D06556
:100E00006FC0C11590E3D90708F079C0CE019F707B
:100E1000E7CF811525E5920758F5811534E593074D
:100E200008F0A6C0811542E5940750F4C11581E58C
:100E3000D80708F471C0DC2FCC27C16FD06A50C02E
:100E4000982F969596959E0123703327C115D3450B
:100E500008F07FC0C1E0D0E002C0CC0FDD1F2A95B2
:100E6000E2F720E2929FC0011124C82BD92B6FC05A
:100E7000C11589E5D807A8F4C11598E5D90708F088
:100E80007CC0C11526E5D20708F09ECF8C2F0E94AA
:100E90006708C82FD0E0DC2FCC27CC27DF71D062C9
:100EA0001FC0C1153AE5D30708F46CC0CE019056B7
:100EB0008115904208F088CF8D2F8F710E946708AE
:100EC00090E0982F882788279F719C012C2BE9019F
:100ED000E6CFC55AD0E0C352DD4FC881D0E0D06420
:100EE000CE01DF91CF910895C85AD0E0CC0FDD1F1D
:100EF000C155DD4F0990D881C02DD464F1CFCE010A
:100F00009927D3FF03C0EC01D86CEACFEC01D06C79
:100F1000E7CFDF70D06AE4CFCE01E4E09695879505
:100F2000EA95E1F783702C2F26952695237090E2A1
:100F3000299F90011124382B8C2F8370C1E0D0E0C1
:100F400002C0CC0FDD1F8A95E2F7C22BD32BDC68E1
:100F5000C7CFC1E0D0E002C0CC0FDD1F2A95E2F779
:100F600030E2939FC0011124C82BD92BDA68B8CF87
:100F7000D82FCC27C46FD06AB3CFDC2FCC27C06F5B
:100F8000D06AAECF8C2F8F700E94670834E0D69560
:100F9000C7953A95E1F7CF709C2FEC01D069A0CFAF
:100FA00082389105B1F1B0F48133910509F475C02F
:100FB00048F48932910509F469C08A32910509F42F
:100FC00073C008958533910509F459C0893391059B
:100FD00001F10895833E9105A9F138F4803E910511
:100FE000F9F0823E910549F10895863E9105A9F1F7
:100FF000873E9105C9F1843E910519F520910804B9
:1010000021FF1FC08091070484FD14C087EE90E08B
:101010000895209107042370A1F080EE90E00895D8
:101020002091070420FD47C03091080430FF09C01B
:1010300024FF44C090E080E004C02091070422FD1A
:10104000F7CF08952091070422FD3BC0309108049A
:1010500030FDE3CF24FFF5CFEDCF2091070423FF30
:10106000F0CF24FDE7CFD2CF2091070423FD2CC081
:101070003091080431FFEECF84EE90E00895209186
:10108000070425FFDECF89E290E008952091070450
:1010900025FFD7CF85E390E008952091070426FF30
:1010A000D0CF8AE290E008952091070426FFC9CFAF
:1010B00081E390E0089589E390E0089583EE90E065
:1010C000089582EE90E0089586EE90E00895909164
:1010D000070492FF06C0282F28712830F9F4877F73
:1010E000846093FF06C0282F28712831F1F4877E91
:1010F00084612091080420FF06C0382F38713830F1
:10110000D9F4877F816021FF06C0282F28712831FC
:10111000D1F4877E816194FD877E0895282F247104
:101120002430F9F68B7F8860DCCF282F247124319E
:1011300001F78B7E8861DDCF382F3171313019F79F
:101140008E7F8860E0CF282F2171213121F78E7E9C
:101150008861E1CF0C94A4220E9452098FE39CE99C
:101160000197F1F700C000000E94520980E00E9440
:10117000EB0880FF04C00E94AA080C9495240895EF
:101180000C94AC080E94AA22811102C00E944F2335
:101190000E94B5228093FB030E94BD229093080415
:1011A000809307040E94C0080E94B922682F70E053
:1011B00090E080E00E94BA1F6091E6037091E7031F
:1011C0008091E8039091E9030C94F41F08950C9426
:1011D000E6080C94B603E82FF0E0EE0FFF1FEF5E79
:1011E000FB4F808191810895089580EA8A95F1F7F7
:1011F000089500C008950C94F508F894E82FE2953E
:10120000EF70F0E031A1282F2F7081E090E001C055
:10121000880F2A95EAF7982F9095932391A392A18E
:10122000892B82A378940895CF93DF9383E30E9460
:10123000FD0882E30E94FD0886EC0E94FD0885E31C
:101240000E94FD08C0EED2E089910E94FD0882E074
:10125000CC3ED807C9F710920A04109209041092E4
:1012600012041092110410920C0410920B041092AC
:1012700014041092130410920E0410920D04109294
:101280001604109215041092100410920F0410927C
:1012900018041092170484E00E94D209DF91CF91C4
:1012A0000C94D104AF92BF92DF92EF92FF920F9312
:1012B0001F93CF93DF93CCEED2E009E014E0D12C62
:1012C000EE24E394F12C8991F894E82FE295EF70E5
:1012D000F0E021A18F70A70102C0440F551F8A952D
:1012E000E2F7CA01922F982B91A392A180958923AE
:1012F00082A378940E94F908E0EEF2E030E020E06A
:10130000B12CA12C4191A42FA295AF70B0E0909682
:101310008C9190E04F7002C0959587954A95E2F7C1
:1013200080FD3BC0C701022E02C0880F991F0A949E
:10133000E2F7A82AB92A2F5F3F4F2C30310511F769
:10134000FE01319780810E94FD080E94FB08F80190
:1013500080819181A816B90619F1B182A08281E03D
:10136000D82A0E5F1F4FF2E0C03FDF0709F0ABCF76
:101370002D2D44E061E174E089E094E00E94D309FE
:101380000E94D7048D2DDF91CF911F910F91FF9077
:10139000EF90DF90BF90AF90089590E080E0C9CFCC
:1013A00080E0DECF0895FF920F931F93CF93DF93DA
:1013B000F82E092F162FD72FC42F222349F081E0B2
:1013C000809336030E942E24909335038093340338
:1013D000809136038823A1F08091340390913503E6
:1013E0000E944624069760F0EF2DF02FA12FBD2F0D
:1013F00090E080E0D0E08C179D0744F01092360317
:10140000DF91CF911F910F91FF900895219131911C
:101410002D933D930196EFCF80913D0380FF12C045
:101420006091220285E0689FB0011124759567954F
:101430007595679560387105A8F561157105A1F17D
:10144000862F089581FF09C06091220285E0689F80
:10145000B001112475956795EDCF6091220282FD50
:101460000AC080913C038823D1F0909121026091C1
:101470002202891728F085E0689FB0011124DACF95
:10148000869FB001112485E0869F9001879F300DD3
:101490001124692F70E0C9010E947D2BCBCF65E03C
:1014A00070E0CECF8FE7089581E0089580913D03ED
:1014B00080FF0CC060911E0270E075956795759570
:1014C00067956115710549F1862F089581FF06C062
:1014D00060911E0270E075956795F3CF60911E02D2
:1014E00082FD0BC090913B039923A1F060911D02F6
:1014F00080911E02961738F0682F70E060387105F1
:1015000000F38FE70895899FC001112470E00E94C5
:101510007D2BF4CF61E070E0D7CF81E008958D3E60
:1015200031F40E940C0A81958093410308958E3E08
:1015300019F40E940C0AF8CF8F3E31F40E940C0A75
:101540008195809340030895803F19F40E940C0A0E
:10155000F8CF893F29F40E94560A809342030895E8
:101560008A3F21F40E94560A8195F7CF8B3F31F4D0
:101570000E94560A81958093430308958C3F19F485
:101580000E94560AF8CF9FE0980F983070F4815F60
:10159000990B21E030E001C0220F8A95EAF7809193
:1015A0003F03822B80933F0308958D3F31F4809158
:1015B0003D03816080933D0308958E3F21F4809127
:1015C0003D038260F7CF8F3FB9F780913D03846080
:1015D000F1CF409140038D3E59F48091410387FF44
:1015E0000DC01092410341110BC010923C0308C082
:1015F0008E3E81F48091410318169CF3442381F0C0
:101600008091420390914303892B09F05AC01092B4
:101610003B0308958F3E49F447FFF0CF10924003FB
:10162000809141038111ECCFE0CF803F19F4141673
:10163000ACF3E4CF90914203893F29F41916F4F6F4
:1016400010924203DBCF8A3F19F497FFD7CFF8CF30
:10165000909143038B3F29F497FFD0CF109243031F
:10166000CDCF8C3F19F41916CCF3C8CF9FE0980F5B
:10167000983090F4815F990B21E030E0B90102C00D
:10168000660F771F8A95E2F7CB01809590913F0313
:10169000892380933F03B2CF8D3F31F480913D0386
:1016A0008E7F80933D03AACF8E3F21F480913D032E
:1016B0008D7FF7CF8F3F09F0A1CF80913D038B7FC6
:1016C000F0CF08950E942E249C01909140038091B8
:1016D0004103982B21F030933A03209339039091E2
:1016E000420380914303982B21F0309338032093D9
:1016F00037038EE393E00C942F17EF92FF920F9332
:101700001F93CF93DF9300D000D000D0CDB7DEB7CA
:1017100086E0EEE3F3E0DE01119601900D928A95EA
:10172000E1F7E0904003F0904103009142031091F3
:10173000430310924003109241031092420310920F
:1017400043038E2D8F2991F08091390390913A03B4
:101750000E944624AC0190913C03992309F43FC0B8
:10176000809123028417150608F447C0802F812B2F
:1017700091F080913703909138030E944624AC0188
:1017800090913B03992309F477C080911F0284173D
:10179000150608F47FC08091400390914103892B86
:1017A00090914203892B90914303892B11F00E9461
:1017B000620B86E0FE013196AEE3B3E001900D923C
:1017C0008A95E1F726960FB6F894DEBF0FBECDBF1F
:1017D000DF91CF911F910F91FF90EF90089520918D
:1017E00024028AE0289F900111242417350708F06D
:1017F000BDCF9F5F90933C0302C09F3FD1F7EE2087
:1018000059F00E940C0A9FEF1E140CF491E0899F7E
:10181000802D112480934003FF2059F00E940C0A70
:101820009FEF1F140CF491E0899F802D1124809369
:10183000410330914003332309F498CF20914103B1
:10184000222309F493CF45EB3403C00111249923DB
:1018500059F09093400345EB240390011124332366
:1018600039F03093410382CF81E080934003F3CF7E
:1018700081E0809341037ACF209120028AE0289F63
:10188000900111242417350708F085CF9F5F9093AE
:101890003B0302C09F3FD1F7002359F00E94560A34
:1018A0009FEF10160CF491E0899F802D11248093F6
:1018B0004203112359F00E94560A9FEF11160CF4AF
:1018C00091E0899F802D112480934303309142033E
:1018D000332309F460CF20914303222309F45BCF23
:1018E00045EB3403C0011124992359F0909342032E
:1018F00045EB240390011124332339F03093430343
:101900004ACF81E080934203F3CF81E08093430389
:1019100042CF86E0EEE3F3E0DF011D928A95E9F71E
:1019200010923C0310923B0310923D030895EF92F6
:10193000FF920F931F93CF93DF93EB01E82FD11109
:1019400010C0442321F0F0E0E651FD4FE4916E2FEA
:101950007E2F8E2FDF91CF911F910F91FF90EF90EF
:1019600008950D2F10E0282F30E0442329F0265150
:101970003D4FF901249130E0F6E0CF9FC0011124E2
:10198000EFEFF0E0BF010E94692BAB018C2F90E0DC
:10199000880F991FA5E5A49FB001A59F700D112484
:1019A000861B970B982F990F980FBF01601B710B27
:1019B000629FD001639FB00D729FB00D11248B2FD9
:1019C0009D9FB0011124672F7727EF01C61BD70B0E
:1019D000BE01629FE001639FD00D729FD00D112464
:1019E0007F01E91AF108E09EB001E19E700DF09EC2
:1019F000700D1124672F7727E61BF70BE29F8001FC
:101A0000E39F100DF29F100D1124E12F722F423031
:101A1000510599F048F44115510569F041305105DF
:101A200081F0EB2F8D2F07C04430510569F080F015
:101A300046305105B1F76E2F8DCFE22F7B2F812FCE
:101A4000FACFE22F7D2FF7CFEB2F822F712FF3CF1D
:101A50007B2F822FED2FEFCF41E00C94970C30E0DD
:101A600020E0869F212D969F200D311D1124C90154
:101A70000895AC018230910508F408959FEF413E2E
:101A80008EE1580740F49A0195E0369527959A958E
:101A9000E1F798E0920F61E0E62FE90FFF27FF1FC3
:101AA0009F0135952795822F229FF001239FF00DEE
:101AB000F00D11244E175F0738F49FEF920F961721
:101AC00058F78FEF860F08952F3FE9F361E0620F1B
:101AD000F6CFEF92FF920F939701201B31092F3F12
:101AE000310519F010F02FEF30E02095382F320F2C
:101AF00008F43FEF832F0F91FF90EF9008950C941F
:101B00002C0D46E050E06CE170E089E194E00C942B
:101B1000A02B46E050E06CE170E089E194E00C9489
:101B2000BE2BE9E1F4E085E0808380913902909159
:101B30003A02A0913B0281839283A3838FE784833F
:101B40008FEF85830C94890D80E008950F931F9388
:101B5000CF93DF93C82FD62F8A010E94A40D9CE05B
:101B6000C99FB001112460507F4F6D0F711DFB01A3
:101B700090819F3F29F0F801E80FF11D90838F5F5E
:101B8000DF91CF911F910F910895E091F602F091AE
:101B9000F7020994E091F202F091F30209942F9276
:101BA0003F924F925F926F927F928F929F92AF92ED
:101BB000BF92CF92DF92EF92FF920F931F93CF933A
:101BC000DF93CDB7DEB72B970FB6F894DEBF0FBE0D
:101BD000CDBF8C832B015F834E83FB01F0818BE0B3
:101BE000F89F802D11248983855F8A838B838633B8
:101BF00010F025E32B83309123043D839981892FB5
:101C000090E09B878A87880F991FFC01E050FF4F67
:101C10006F01FC818F2F90E09C012F5F3F4F398730
:101C20002887EB81FA85FE17F0F081E02A812533C1
:101C300008F080E02B960FB6F894DEBF0FBECDBF44
:101C4000DF91CF911F910F91FF90EF90DF90CF9098
:101C5000BF90AF909F908F907F906F905F904F90CC
:101C60003F902F900895EA85FB85E656FE4F8081D0
:101C7000F2019181892301F120901A0430901B0414
:101C8000288539852D5D3B4F39013C81398310E032
:101C900029813D812317C8F020911C04129F112D2A
:101CA0001124B101812F0E947F0D462F282F672F0D
:101CB0008A859B850E94CA0D8A859B8501969B8794
:101CC0008A8792E0C90ED11CACCFF30181913F010C
:101CD000F601A0A8A81ABB0881A8F3018781881A79
:101CE0009908AA9C9001AB9C300D300D1124889C62
:101CF000C001899C900D900D1124820F931F0E94AA
:101D0000390D082FF301EE0FFF1FE352F4406091ED
:101D10001D04858996890E942F0D7C019401A501DF
:101D2000B101812FEE81FF8109951B01F981FF5FD0
:101D3000F983182FADCF2091230431E0231B08F441
:101D400020E049E65DE0BC01822F0C94CF0DBF92EC
:101D5000CF92DF92EF92FF920F931F93CF93DF9377
:101D60007C01FC01C0818BE0C89FC02D11241BE0C9
:101D70001C0F012F163308F005E360911A047091CF
:101D80001B0480911C040E947F0DD62EC72EB82EF6
:101D9000D0E0C01770F081E0153308F080E0DF91EB
:101DA000CF911F910F91FF90EF90DF90CF90BF9058
:101DB0000895FE01E656FE4F8081F7019181892347
:101DC00031F02B2D4D2D6C2DCE010E94CA0D219688
:101DD000E0CFE091F402F091F5020994CF92DF9206
:101DE000EF92FF920F931F93CF93DF93CDB7DEB7A0
:101DF00028970FB6F894DEBF0FBECDBF182F062F61
:101E0000F42E0E949317882309F44BC0FF2009F495
:101E100057C0AE014F5F5F4F602F812F0E94A60D0C
:101E2000F82EE09044030F2D10E0C8018E0D911D97
:101E3000099764F188E090E06C01C01AD10AB801FA
:101E40006B5B7C4FA60185E493E00E94972BB80161
:101E5000635B7C4FA6018DE493E00E94972BA60163
:101E6000440F551FB801660F771F635A7C4F8DE5ED
:101E700093E00E94972BB8016B5A7C4FA60185E531
:101E800093E00E94972BEA94E0924403109144035C
:101E9000DE01119640E0842F810FF41213C080936D
:101EA000440328960FB6F894DEBF0FBECDBFDF9176
:101EB000CF911F910F91FF90EF90DF90CF900895F9
:101EC000F12CAFCF5D91252F30E090E0BC016C5B31
:101ED0007C4FF901EE0FFF1FE05DFE4F0081FB011B
:101EE0000183220F331FF901E050FF4F21A9FB01AD
:101EF0002187518B880F991FFC01EC5BFC4F128EE0
:101F0000118E4F5FC8CF08950E94F9030C94830F80
:101F100008950895CF93DF93FC01C0818BE0C89FA3
:101F2000C02D1124D5EFDC0FC63308F0C5E36C2FAC
:101F30008D2F0E94880F6C2F8D2FDF91CF910C94E5
:101F4000890F4F925F926F927F928F929F92AF9282
:101F5000BF92CF92DF92EF92FF920F931F93CF9396
:101F6000DF93CDB7DEB764970FB6F894DEBF0FBE30
:101F7000CDBF60916D0370916E0380916F0390915E
:101F800070030E9455246B017C010E943A244B018E
:101F90005C0180926D0390926E03A0926F03B092E9
:101FA0007003A0914403E4E4F3E08A2F90E04FEF44
:101FB0005FEF60E070E04C195D096E097F09A913BD
:101FC00033C0809344038091710310E0811108C0F5
:101FD00080911904182F137019F0182F1695169563
:101FE00080912502813009F449C0882381F1823033
:101FF00009F456C1833009F45EC164960FB6F894B3
:10200000DEBF0FBECDBFDF91CF911F910F91FF902B
:10201000EF90DF90CF90BF90AF909F908F907F9088
:102020006F905F904F900895218D328D2901712C12
:10203000612C441555056605770520F481509F5F96
:102040003296BDCF2C0D3D1D328F218FF8CF1092CF
:10205000260280921F0490922004A0922104B09244
:10206000220489E2E4E4F3E0A3E2B4E001900D92FB
:102070008A95E1F781E080932502BFCF8091290204
:10208000181323C090911904937020912A0230E014
:1020900081E09217130609F480E081708093280292
:1020A00080911E0490912702981739F0809327029F
:1020B00040E060E080E00E94E90E173088F4E12FF4
:1020C000F0E0EE5FF34D0C94912B81E0E6CF809130
:1020D0002802882359F040E060E080E00E94E90E89
:1020E00080E004C086E292E00E94A70E9091260252
:1020F0009F5F909326028111CFC082E080932502DA
:10210000809128028111C8C0112309F4D2C00E9415
:10211000840F86E292E064960FB6F894DEBF0FBE9D
:10212000CDBFDF91CF911F910F91FF90EF90DF9086
:10213000CF90BF90AF909F908F907F906F905F9067
:102140004F900C948A0F86E292E00E949B0ECECFB5
:10215000909126020BE0909F000D112440E56FE75F
:102160008FEF0E94E90E8DE0ECE3F2E0DE011196C4
:1021700001900D928A95E1F7CE0101967C016E01E6
:102180009EE0C90ED11CF70181917F0120E040E063
:102190006FEF90E00E94CA0DCE14DF04A1F781E03A
:1021A000053308F4A3CF9CCF909126020BE0909FBB
:1021B000000D112444E66AEF8FEF0E94E90E84E1DE
:1021C000E9E4F2E0DE01119601900D928A95E1F7C3
:1021D000CE0101967C016E0195E1C90ED11CF7017B
:1021E00081917F0120E04FEF6FEF90E00E94CA0DD8
:1021F000CE14DF04A1F7D3CF909126020BE0909F7D
:10220000000D112446EF6DEC89EB0E94E90E8FE082
:10221000EDE5F2E0DE01119601900D928A95E1F76D
:10222000CE0101967C016E0190E1C90ED11CF7012F
:1022300081917F012FEF40E060E090E00E94CA0DA5
:10224000EC14FD04A1F7ABCF909126020BE0909F18
:10225000000D11244AE96FEF8AE90E94E90E80E13E
:10226000ECE6F2E0DE01119601900D928A95E1F71D
:10227000CE0101967C016E0191E1C90ED11CF701DE
:1022800081917F0120E04FEF60E090E00E94CA0D55
:10229000EC14FD04A1F783CF112309F4AECE37CFA0
:1022A0001093290280911904837080932A020E945E
:1022B000C50D83E0E0CE60911F04709120048091F1
:1022C0002104909122040E945524603171058105FA
:1022D000910508F492CE109225028FCEE091F00283
:1022E000F091F1020995109223048FEF9FEF9093E4
:1022F0003D0480933C0490933F0480933E0490936C
:10230000410480934004909343048093420490934B
:10231000450480934404909347048093460490932B
:1023200049048093480490934B0480934A0410928C
:10233000440390935E0380935D03909360038093C6
:102340005F0390936203809361039093640380938F
:10235000630390936603809365039093680380936F
:10236000670390936A038093690390936C0380934F
:102370006B030E94AA22811104C00E944F230E9475
:10238000910D0E94810D809119048C7F11F40C94A1
:10239000910D0895CF93C82F882329F040E060E085
:1023A00080E00E94E90EC0937103CF91089590914F
:1023B000190421E0922790931904109225028111AB
:1023C0000C94890D089581E00C94D7119091190413
:1023D000937099F0811109C0946090931904109240
:1023E0002502662351F00C94890D873010F0986116
:1023F000F4CF880F880F982BF0CF089561E00C94EC
:10240000E611682F909119049695969581E0890FB1
:10241000873008F081E00C94E61181E00C94011201
:10242000682F90911904969596958FEF890F09F46E
:1024300086E00C94E61181E00C941012909119043E
:10244000937049F080931A0460931B0440931C041A
:1024500021110C94890D0895A9E1B4E01196EC9135
:102460001197F0E0282F13964C91139712966C91C8
:10247000CF0108960C941E1281E00C942C12E9E115
:10248000F4E09181282F43816281E92FE850FF0B0E
:10249000CF010C941E1281E00C943F12E9E1F4E0AC
:1024A000628120E1620F08F46FEF9181282F438150
:1024B000892F90E00C941E1281E00C944E12E9E1F9
:1024C000F4E0628120E1621B08F460E09181282F32
:1024D0004381892F90E00C941E1281E00C945F12CE
:1024E000E9E1F4E0438120E1420F08F44FEF9181EC
:1024F000282F6281892F90E00C941E1281E00C94A9
:102500007012E9E1F4E0438120E1421B08F440E06D
:102510009181282F6281892F90E00C941E1281E016
:102520000C94811220911D0430E1230F08F42FEF49
:1025300020931D0481110C94890D089581E00C9461
:10254000921220911D0430E1231B08F420E0209317
:102550001D0481110C94890D089581E00C94A11241
:102560000895FC01EE0FFF1FE80FF91FE45BFB4F1E
:102570006183408322830895ECE4F4E081836083E7
:102580004283339694E0EB3EF907C1F7089565E383
:1025900070E08CE494E00C944E13FA01811101C0B8
:1025A000FB0109940F931F93CF938C01FB01C28110
:1025B000CC2309F471C00E94E22182720A3CFCE53E
:1025C0001F0709F460C048F5063CECE51E0709F456
:1025D00055C078F4043C9CE5190709F443C008F0A1
:1025E00048C0033C1C45D9F18C2FCF911F910F910E
:1025F00008954DE652E16CE572E1083C9CE519074F
:10260000A9F14CE352E16BE472E1093C1C4570F125
:102610004CE552E16DE672E129C00E3CFCE51F0776
:10262000B9F1A0F44DEA52E16EE972E10C3CECE53F
:102630001E07E1F04EE752E16FE872E10D3C1C45E8
:10264000A8F04EE952E16DEA72E110C0073D8CE559
:10265000180718F00E351D4539F6C0E0C5CF0E94A9
:10266000E311FBCF4BE152E16DE072E10E94CD122C
:10267000F4CF4DE052E16BE172E1F8CF4BE452E16F
:102680006CE372E1F3CF4FE852E16EE772E1EECF17
:1026900081E00E94FE11E1CFC1E0A6CF6A9A4EB15F
:1026A0004B7F5EB15460EFB7F8949B01220F331F4C
:1026B000260F371F280F391F2817390741F4EFBF9E
:1026C0008FE594E00197F1F700C000000895DC0168
:1026D0006D91CD0178E05EB9000000C067FF4EB992
:1026E000660F000000C000C000C04EB900C07A955F
:1026F00091F7E2CF0F931F93CF93DF93C42FD22F85
:10270000FC0182818823C9F0409374030E942E2427
:10271000909373038093720380E28C0F883008F0EB
:1027200050C0C77081E001C0880FCA95EAF7DF91F9
:10273000CF911F910F910C949B1910917403141356
:1027400035C080917203909173030E944624883CA7
:10275000910560F5C0E2CD0F1D17B9F080E2810F41
:10276000883040F4177081E001C0880F1A95EAF7AD
:102770000E94A219C83048F481E09D2F977001C0D3
:10278000880F9A95EAF70E949B19802F0E9493194F
:10279000C830B8F4D77081E001C0880FDA95EAF745
:1027A000DF91CF911F910F910C94A21980E28C0FB1
:1027B000883038F4C77081E001C0880FCA95EAF705
:1027C000EFCFDF91CF911F910F9108950F939C014F
:1027D000CB01243F4CE5340759F1A8F4293DFCE531
:1027E0003F0701F12A3D4CE53407D1F1283D3C4536
:1027F00091F406E221EE41EE68ED7CE50E947A1349
:1028000080E00F910895263FFCE53F07E9F0B0F026
:10281000273F3C45F9F0FC018281882339F1109271
:102820007403EFCF07E225EE45EE69ED7CE5E6CFD8
:1028300006E221EE40EE64EF7CE5E0CF07E225EE14
:1028400044EE65EF7CE5DACF06E221EE42EE66EF7C
:102850007CE5D4CF07E225EE46EE67EF7CE5CECFF0
:1028600008E221E045EE6AED7CE5C8CF81E0C9CF02
:10287000CF93DF93EC01FB018281882309F419C116
:10288000C230FCE5DF07C0F1C6319CE5D90730F066
:102890009E012B5F3C452930310570F50E94BD2219
:1028A0009093080480930704C031ECE5DE0709F437
:1028B000CFC008F05BC0C8308CE5D80709F4B6C0BB
:1028C00088F5C430ECE5DE0709F4A8C0C0F4C230D6
:1028D0008CE5D80709F49CC0809107048260C3305E
:1028E000DC4509F498C080910704909108040E9487
:1028F000CB220E94221C80E0DF91CF91089580912D
:1029000007048061C630ECE5DE0709F484C08091DD
:1029100007048860C730DC4508F47DC08091070457
:10292000806279C0CC308CE5D80709F489C070F496
:10293000809107048C60CA30ECE5DE0709F46BC0B7
:1029400008F478C0809107048E7F65C0CE308CE596
:10295000D80709F479C0809107048B7FCF30DC451C
:1029600008F459C0809107048F7E55C0CC3FECE538
:10297000DE0709F457C030F5C3318CE5D80709F4F8
:102980006FC078F4C131ECE5DE0709F465C0C231EF
:10299000DC4509F0A8CF0E94221C809107048F77A4
:1029A0003AC0C5318CE5D80709F462C008F476C096
:1029B000809108048160CB3FDC4509F094CF80937F
:1029C000080491CFC115FDE5DF0709F44DC088F477
:1029D000809108048D7FCE3F9CE5D90781F38091DB
:1029E00008048E7FCF3FDC4550F38091080483605C
:1029F000E6CFC230FDE5DF0709F459C008F444C052
:102A000080E0C330DD4509F06ECF0E9451236BCFCB
:102A10008091070481608093070465CF809107044B
:102A20008460F9CF809108048260C9CF8091070447
:102A30008064F1CF0E94221C809107048068EBCF54
:102A4000809107048D7FE7CF80910704877FE3CFD4
:102A5000809107048F7DDFCF809107048F7BDBCFD0
:102A600080910704837FD7CF809108048C7FA7CF04
:102A70008091070482FB992790F921E0922790FB2F
:102A800082F990FB83F9C7CF80910804982F909525
:102A900091708E7F892B90FB81F991CF0E94221C2F
:102AA00090910704892F97FB87F98058B4CF81E074
:102AB000ACCF81E021CFCF93DF93EB0186319C45F2
:102AC00011F50E94E2219A81992399F08A7A91E086
:102AD00009F490E090937503811109C089E20E9486
:102AE0009C210E94352280E0DF91CF91089585E3FB
:102AF000F6CF80917503811104C089E20E94A32161
:102B0000F0CF85E3FBCF81E0EFCFCF93DF93EC01F4
:102B100081E0898B8F810E94E52188850E94F821C0
:102B20000E943522EA81FB81309739F06C897D89DA
:102B3000CE010696DF91CF910994DF91CF91089550
:102B4000CF93DF93EC018881823039F4FB018281DD
:102B500093810E94590481E08B87DF91CF91089582
:102B6000FC018081813029F4FB01808191810C94EA
:102B70005904823021F4FB0182819381F8CF0895BA
:102B8000FC018081813029F4FB01808191810C94CA
:102B90006E04823021F4FB0182819381F8CF089585
:102BA000EF92FF920F931F93CF93DF93EC018A85EF
:102BB000811134C0EB80FC8087E5F81A26E12E9D58
:102BC000C0012F9D900D1124DC01A153BE4F14961E
:102BD000ED91FC911597309731F054966D917C9161
:102BE0008B529E4F099586E18E9D80018F9D100D21
:102BF000112401531E4FF80187810E94EB21F80137
:102C000080850E94FE210E943522188219861B862B
:102C10001E821D821092770310927603DF91CF916E
:102C20001F910F91FF90EF900895DF92EF92FF9226
:102C30000F931F93CF93DF937C01FB018281882345
:102C400091F080912B028F3F71F0CFECD1E010E03A
:102C500000E0DD24D39480912B02082E000C990B08
:102C60008017910744F4DF91CF911F910F91FF904E
:102C7000EF90DF9008958E818823D9F089859A8519
:102C80008E159F0539F480917603909177038E1508
:102C90009F0579F0DF86FC86EB868989811103C068
:102CA000CE010E948515CE0106960E94D0150E9485
:102CB00005220F5F1F4F6696CECFEF92FF920F93C4
:102CC0001F93CF93DF937C0197558F3F910509F0B8
:102CD000D8F520912B02022E000C330B2817390750
:102CE00014F480932B02FB01228136E1389F80018E
:102CF000399F100D1124E801C153DE4F288B9281BA
:102D00008E81992349F1FA86E9868F5F8E830E942E
:102D10002E249E878D870E9418228F830E94E22195
:102D200088870E94F5219885892B8887E881F98119
:102D3000309731F06C897D89C8018B529E4F09957F
:102D4000F0927703E092760381E0DF91CF911F91BB
:102D50000F91FF90EF9008958823B1F3898988231C
:102D600099F3C8018B529E4F0E94D015EDCFEF9280
:102D7000FF920F931F93CF93DF9380912B0210E06C
:102D800006E18F3FC1F5DF91CF911F910F91FF9029
:102D9000EF900895029FF001039FF00D1124E1537D
:102DA000FE4FE288F388E114F10419F488ECE82E70
:102DB000F12C029FE001039FD00D1124C153DE4F7F
:102DC0008E818823B9F08D859E850E944624E81661
:102DD000F90680F4109F700111248989811105C0C2
:102DE000C70181539E4F0E948515C7018B529E4F8C
:102DF0000E94D0151F5F212F30E080912B02082EFA
:102E0000000C990B821793072CF6BDCF90937D038E
:102E100080937C030895E0917C03F0917D033097CB
:102E200021F00190F081E02D099480E00895E09177
:102E30007C03F0917D03309711F480E008950190B8
:102E4000F081E02D09950895E0917C03F0917D03D8
:102E5000309721F00280F381E02D09940895E091EC
:102E60007C03F0917D03309739F022E0DC012C9354
:102E70000480F581E02D0994089520917A03309122
:102E80007B032817390771F090937B0380937A03B3
:102E9000E0917C03F0917D03309721F00680F7816B
:102EA000E02D099408952091780330917903281733
:102EB000390771F09093790380937803E0917C0354
:102EC000F0917D03309721F00084F185E02D099485
:102ED00008950E943A2460938B0370938C0380932F
:102EE0008D0390938E036093870370938803809380
:102EF000890390938A03089585B7806885BF85B755
:102F0000806885BF0895089508950C9483170C94E4
:102F1000F6030E947C1782EA92E20E94B9240E9482
:102F200084170C94851781E008950C9493170895E5
:102F300008950E9497170C9498170E9425240E94C8
:102F400014090C9487178F929F92AF92BF92CF92E1
:102F5000DF92EF92FF920F931F93CF93DF93CDB742
:102F6000DEB72A970FB6F894DEBF0FBECDBF0E9422
:102F7000520981110E9469175FE7852E53E0952E53
:102F800010E000E0E02E802F0E94EB085C01F401CD
:102F9000C190D1904F01C816D906B1F40F5F1F4FF1
:102FA0000430110579F78FEF89838A831B820E9491
:102FB0002E248160782F9D838C8349815A816B8177
:102FC0008D810E945D183DC08091FB0381FD0E94B0
:102FD000F408C6018A259B25F12CCC24C394D12C5E
:102FE0009C012C213D21232B09F44DC00E949517F3
:102FF00095012C213D21BB24B394232B09F4B12C42
:10300000882379F0FE82EF82B8860E942E248160A8
:10301000782F9A8789874E815F8168858A850E948B
:103020005D18000F111FF801E158FC4F808191815C
:10303000C826D926D182C0824B2D6F2D8E2D0E949D
:10304000EE0E0E94A10F0E947D0B0E940B17909123
:103050007E038917F9F00E940B1780937E032A964E
:103060000FB6F894DEBF0FBECDBFDF91CF911F9199
:103070000F91FF90EF90DF90CF90BF90AF909F9017
:103080008F900C949306F394CC0CDD1CFCE0FF12A3
:10309000A7CF84CF2A960FB6F894DEBF0FBECDBF60
:1030A000DF91CF911F910F91FF90EF90DF90CF9024
:1030B000BF90AF909F908F900895DF92EF92FF9214
:1030C0000F931F93CF93DF93CDB7DEB72B970FB638
:1030D000F894DEBF0FBECDBF7A878B87F42E052F05
:1030E000162FE72ED82E61110E9405221E821D8206
:1030F0007E2DEC82DD824F2D502F612F8D2D9E81F4
:103100002B960FB6F894DEBF0FBECDBFDF91CF91E7
:103110001F910F91FF90EF90DF900C94981EFC018F
:10312000808191810C946E21CF93C82F882309F45C
:103130008BC08238C1F40E940B1781FD85C089E3E2
:103140000E949C210E9435222FEF81EE94E02150B5
:1031500080409040E1F700C0000089E30E94A32175
:10316000CF910C9435228338A1F40E940B1780FD77
:103170006BC083E50E949C210E9435222FEF81EED7
:1031800094E0215080409040E1F700C0000083E5CA
:10319000E5CF8438A1F40E940B1782FD55C087E467
:1031A0000E949C210E9435222FEF81EE94E0215055
:1031B00080409040E1F700C0000087E4CFCF8CEF63
:1031C0008C0F813A90F46C2F80912C0290912D02FB
:1031D0000E946823882329F08C2F0E94A3210E943B
:1031E00035228C2F0E949C21BBCF80E28C0F88302F
:1031F00048F4C77081E001C0880FCA95EAF70E94C1
:10320000E521AECFEBE5EC0FE33040F4F0E0EA5D12
:10321000FC4F808190E0CF910C943D17E8E5EC0FD6
:10322000E73150F4F0E0EE0FFF1FE850FD4F8081D2
:103230009181CF910C945317CD3E30F08C2F0E948A
:103240008F0ACF910C94620BCF910895882309F4D3
:1032500052C0823871F40E940B1781FF4CC089E381
:103260000E949C210E94352289E30E94A3210C9494
:103270003522833859F40E940B1780FF3CC083E548
:103280000E949C210E94352283E5EFCF843859F4B7
:103290000E940B1782FF2FC087E40E949C210E948E
:1032A000352287E4E2CF9CEF980F913AF0F290E25A
:1032B000980F983050F4877091E001C0990F8A956B
:1032C000EAF7892F0E94EB21D2CF9BE5980F93302C
:1032D00020F490E080E00C943D1798E5980F97312A
:1032E00020F490E080E00C9453178D3E20F00E9473
:1032F000E90A0C94620B08951F93CF93DF93182F64
:10330000EB010E949418209731F4812FDF91CF9127
:103310001F910C9426198FE99FE00197F1F700C0E7
:1033200000002197F0CF70E060E0893311F460E590
:1033300070E00C947C19882321F00E94E5210C9404
:1033400035220895882321F00E94EB210C94352228
:103350000895BF92CF92DF92EF92FF920F931F9347
:10336000CF93DF936C01D62FC72FFC01128105810B
:1033700002950F700E94BA21E82E8823A1F0E12E59
:10338000112389F08C2F807F803429F080E28D0F0B
:10339000E12C883040F082E00E9486220E94BA210F
:1033A00091E0E82EE926BC2EB2949FE0B922EB2DE5
:1033B000F0E0E75FF34D0C94912B0C2F0F70C07F62
:1033C00011F00295007F1123A9F0002359F080E24B
:1033D0008D0F883010F0D11109C0802F0E94E52197
:1033E0000E9435228D2F0E94941814C0802F0E94B5
:1033F000F821F6CF8D2F0E942619002359F080E284
:103400008D0F883010F0D1112CC0802F0E94EB213D
:103410000E9435222B2D2850330B2430310520F407
:103420000E940B170E949306EE2009F49EC10E9491
:10343000B62180FD9AC1F60112820E94B0210E943D
:103440003C20C6010E94D61B0E94B021DF91CF9183
:103450001F910F91FF90EF90DF90CF90BF900C9451
:103460005D20802F0E94FE21D3CFFC2FFF70FF2E06
:10347000C07FC03219F0F29480EFF822DD2369F0AA
:10348000D13049F1112391F1002351F1F6018581E9
:1034900080FFA8CF8F70858323C0112381F0011195
:1034A00006C00E9418228F290E949B19B3CF0130B9
:1034B000C1F70E9418228F290E941E22ABCF011152
:1034C00006C00E942B228F2D0E94A219A3CF01308B
:1034D00009F4A0CFF6CF112329F0063008F09ACFD7
:1034E0008F2DE2CF053008F095CFEDCF002359F3B3
:1034F000D93349F4FFEF27EE33E0F150204030405C
:10350000E1F700C000008D2F0E94261983CF8C2F79
:1035100086958695837069F0813009F07BCF8D2F79
:103520009C2F9370111102C090E080E00E9453170D
:1035300071CF8D2F9C2F9370111102C090E080E00D
:103540000E943D1767CF8D2F112329F00E948F0A0B
:103550000E94620B5FCF0E94E90AFACF8C2F837022
:1035600009F041C0111156CF4D2F42954695477035
:10357000440F440F0D2F0F7010E030E020E0042EB8
:1035800004C0000F111F221F331F0A94D2F760E0FE
:1035900070E0CB01D4FF0FC06FE070E080E090E0FE
:1035A00004C0660F771F881F991F4A95D2F7609550
:1035B000709580959095C695C695C370602B712BBC
:1035C000822B932BC23049F058F4C13019F00E947D
:1035D000CE1F20CF0E94BC1F1DCF0E94E01F1ACF1C
:1035E0000E94BA1F17CF8695112311F08C2F81707E
:1035F000882309F40FCF4D2F429546954770440F0D
:10360000440F0D2F0F7010E030E020E0042E04C0B6
:10361000000F111F221F331F0A94D2F760E070E0E1
:10362000CB01D4FF0FC06FE070E080E090E004C0F9
:10363000660F771F881F991F4A95D2F7609570957E
:1036400080959095C695C695C370602B712B822B83
:10365000932BC23049F058F4C13019F00E94B320C6
:10366000D9CE0E94A120D6CE0E94C520D3CE0E94E2
:10367000F61FD0CECF70112329F08C2F0E943C2052
:103680008D2F12CF8D2F0E94A2198C2F0E945D20AA
:10369000C1CED23F89F160F4D03FC9F0D13F29F1CA
:1036A000112309F442C001119DCE8C2F8F7121C0CE
:1036B000D33F39F1D43FA1F7112369F1CF718C2F9A
:1036C0000E943C2063E08C2F0E946B22A3CE11232A
:1036D00041F0053008F09ECE8C2F8F710E94802023
:1036E00099CE063008F096CEF7CF8C2F8F7111232C
:1036F00069F20E943C208ECE8C2F8F711123C9F36A
:10370000C5CF112329F08C2F8F710E94272082CEE4
:103710000E9402207FCE81E00E948622023008F4BF
:1037200079CE82E00E94862275CE002359F0D933EB
:1037300009F0E9CE8FEF97EEE3E081509040E04052
:10374000E1F7DFCE8C2F8F71A1CF4C2F4F706D2FF3
:10375000C6010E949B060E94321F5CCE4C2F4F7008
:103760006D2FC6010E949E0655CEDF91CF911F910D
:103770000F91FF90EF90DF90CF90BF9008950F933F
:103780001F93CF93DF93EC01688179818A810E9436
:1037900078218C010E94D7200E94B91FB801CE0168
:1037A000DF91CF911F910F910C94A919CF93DF93C3
:1037B000EC018B819C81892B29F088819981892357
:1037C0008F3F59F4DF91CF910895CE010E94BF1B26
:1037D000CE01DF91CF910C94C604CE010E94EB0480
:1037E0008111F3CF0E94BA21882361F38A81882353
:1037F00049F382E0DF91CF910C948622882321F057
:103800000E94F8210C9435220895882321F00E940B
:10381000FE210C943522089590E080E00E943D172F
:1038200090E080E00E9453170E9405220E9415221A
:103830000E9435220E94890C0C94620B0E94AA21DE
:103840000C940C1C0E94F2210C941E1CE92FE29592
:10385000EF70E250EE3070F4F0E0E75EF34D0C9460
:10386000912B803F19F020F4883E20F481E00895E8
:10387000843FE1F380E00895883EC0F3813FD1F7B3
:10388000F5CF93FB882780F908950E946E210C9450
:10389000261CCF93DF9300D000D00F92CDB7DEB7B8
:1038A0000F900F900F900F900F90DF91CF91089590
:1038B000CF93DF9300D000D000D0CDB7DEB72696EF
:1038C0000FB6F894DEBF0FBECDBFDF91CF91089544
:1038D0001F93CF93DF93C091900316E080919103E3
:1038E0008C1304C0DF91CF911F910895D0E01C9FED
:1038F000F0011D9FF00D1124EE56FC4F40815181C7
:1039000062817381848195810E94581C2196C770C1
:10391000E5CF4091C2035091C3036091C4037091FD
:10392000C5038091C6039091C7030C94581C1F9344
:10393000CF93DF938091C703807FA9F48091C40364
:10394000882389F080919003C09191036091C20314
:103950007091C303A091C503B091C603D62FD7239E
:1039600016E0C81304C0DF91CF911F91089590E035
:10397000109711F0DF3F19F401968770F2CF189F6E
:103980009001199F300D1124F901EE56FC4F418131
:103990004713F2CF40814613EFCF42814111ECCF64
:1039A000438154814A1B5B0B483C510528F78091A9
:1039B000C7038F7080618093C703F901E956FC4FFC
:1039C00080818F708061808382EC93E00E94D61B9F
:1039D000DF91CF911F910C94681CAF92BF92CF9250
:1039E000DF92EF92FF920F931F93CF93DF93CDB7A8
:1039F000DEB761970FB6F894DEBF0FBECDBF8C0166
:103A000085E0F801DE011D9601900D928A95E1F79F
:103A1000F80140815181E28082ECC82E83E0D82EEB
:103A20006091C5037091C6036115710509F461C108
:103A30009091C2032091C303892F82238F3F09F401
:103A400058C1A380B480F090C403F501E61BF70BC6
:103A5000FF2009F4FCC08091C703382F307FE83C79
:103A6000F10508F0B2C0311179C0FE2C251323C036
:103A7000941321C0E1101FC08F7080618093C70331
:103A80000E94891CC6010E94D61B8091C703F801C1
:103A900085838F2D61960FB6F894DEBF0FBECDBF24
:103AA000DF91CF911F910F91FF90EF90DF90CF901A
:103AB000BF90AF900895AB2829F0842F85238F3FC6
:103AC00009F033C180E0F82FF170DF2E80FF3CC099
:103AD000809190032091910336E0821315C04D87A9
:103AE0005E878D859E850E946E21292F22952F70DD
:103AF0002230F0F0243018F59F70F1F0F801958134
:103B0000907FD1F4D12C1EC090E0389FF001399FF6
:103B1000F00D1124EE56FC4F6181651306C06081E3
:103B2000641303C062816E110FC001968770D5CFF8
:103B30009F7011F0882331F3805E883018F3C8013C
:103B40000E94D61BFD2CA5CFEE2009F4A2CF8091B8
:103B5000C70381608093C703F12C9BCF251306C058
:103B6000941304C0F801EE2009F48DC04D875E87E0
:103B70008D859E850E94451C882319F1EE2009F150
:103B80008091C703803270F02091C2033091C3034B
:103B900038872F831986BB86AA868C87CE01079625
:103BA0000E94D61B86E0F801A2ECB3E001900D92D2
:103BB0008A95E1F70E94971C0E94891CFF24F394C8
:103BC00068CFC8010E94D61BF9CF311113C07A2DDE
:103BD000B98AA88A6E2D89890E94491C82EC93E0DB
:103BE0000E94D61B86E0F60111928A95E9F70E94A1
:103BF000891CB2CF25130FC094130DC0E1100BC068
:103C0000F8018583C8010E94D61B86E0F601119257
:103C10008A95E9F73ECF4D875E878D859E850E9408
:103C2000451C882371F2EE2061F28091C703803237
:103C300008F4B8CF2091C2033091C3033A8329839B
:103C40001B82BD82AC828E83CE010196A9CFE83C57
:103C5000F10508F041C0FE2CEE2009F4B2CF251387
:103C60002AC0941328C08091C70380FD1BC0982FE1
:103C7000907FC1F0F8018583903F31F0982F907FBD
:103C8000905F8F70892B8583C8010E94D61B86E0C8
:103C9000F801A2ECB3E001900D928A95E1F70E9441
:103CA000891CF7CE86E0F801A2ECB3E001900D92FA
:103CB0008A95E1F7EECE4D875E878D859E850E94C1
:103CC000451C81116FCF8091C70381608093C7032A
:103CD000C8010E94D61BDDCE7A2DB98AA88A6E2D26
:103CE00089890E94491C86E0F60111928A95E9F7BC
:103CF000D6CFEE2009F465CF4D875E878D859E85F2
:103D00000E94451CF82E882309F45BCF86E0F80159
:103D1000A2ECB3E001900D928A95E1F782EC93E07A
:103D20000E948F180E94971CBACF81E08E25CBCEBF
:103D30001F93CF93DF93CDB7DEB72C970FB6F894D0
:103D4000DEBF0FBECDBF4F83588769877A878B87C9
:103D50009C87CE0107960E94ED1C882369F08A8516
:103D60009B85892B39F04F815885842F85238F3F80
:103D700009F071C016E05FC086E0FE013796DE01F3
:103D8000119601900D928A95E1F78A859B85892B82
:103D900089F38F81988589238F3F61F32091910367
:103DA00030E0C90101968770992740919003481728
:103DB000190671F40E94221C109291031092900334
:103DC00086E0E2ECF3E0DF011D928A95E9F7D2CFBD
:103DD00096E0929FD001939FB00D1124AE56BC4F38
:103DE000FE01319601900D929A95E1F7809391032F
:103DF0000E94681CBFCF819FC00111248E569C4F2A
:103E00000E94ED1C8823E9F0E09190031E9FF001D1
:103E10001124EE56FC4F408151816281738184816F
:103E200095810E94581C8091900390E001968770C4
:103E30009927809390038091900390919103891327
:103E4000DACF2C960FB6F894DEBF0FBECDBFDF9150
:103E5000CF911F91089569857A858B859C850E94F5
:103E6000581C88CFEF92FF920F931F93CF93DF934D
:103E70008C01892B81F0F12CEE24E394E80121964A
:103E8000F8018491843770F4843008F05FC0813089
:103E9000B1F08230A1F1DF91CF911F910F91FF908E
:103EA000EF900895853709F44CC008F43DC09CE7B5
:103EB000980F903780F78F770E94261949C00E5FC0
:103EC0001F4FFE01849190E2980F983060F4877044
:103ED000FE2D01C0FF0F8A95EAF78F2F0E9408225E
:103EE0000E94352202C00E9494188F2D815030F21A
:103EF000EFE9FFE03197F1F700C00000F7CF0E5F68
:103F00001F4FFE01849190E2980F983050F4877013
:103F1000FE2D01C0FF0F8A95EAF78F2F0E940E2217
:103F2000DFCF0E942619E1CF0E5F1F4FFE01C49123
:103F3000C150D8F28FE99FE00197F1F700C000006F
:103F4000F7CF0E5F1F4FFE01F490CFCF0E94941861
:103F50008E01CBCF08950C94AA1F0E94AB1F6093D3
:103F6000EA037093EB038093EC039093ED030C94BE
:103F70000C1C08950C94AD1F0F931F930091EA033E
:103F80001091EB032091EC033091ED03602B712B2A
:103F9000822B932B1F910F910C94AD1F0F931F93A6
:103FA0000091EA031091EB032091EC033091ED03B3
:103FB00060237123822393231F910F910C94AD1FD3
:103FC0000F931F930091EA031091EB032091EC03F0
:103FD0003091ED0360277127822793271F910F915E
:103FE0000C94AD1F0C94AA1F0C94F21F0E94F41F96
:103FF0006093E6037093E7038093E8039093E903EB
:104000000C940C1C60E070E0CB010C94F61F611561
:1040100071058105910529F481E0442361F080E078
:104020000895DC01CB0104C0B695A79597958795B7
:104030004A95D2F781700895482F6091E6037091F8
:10404000E7038091E8039091E9030C9407200F9314
:104050001F9341E050E060E070E08A019B0104C0E2
:10406000000F111F221F331F8A95D2F7C901B80113
:104070001F910F910C94F61F0F931F9341E050E096
:1040800060E070E004C0440F551F661F771F8A95DB
:10409000D2F78091E6039091E703A091E803B091F5
:1040A000E9038A019B01082B192B2A2B3B2BC90101
:1040B000B8011F910F910C94F61F0F931F9341E0CD
:1040C00050E060E070E004C0440F551F661F771F8A
:1040D0008A95D2F7CB01BA0160957095809590953D
:1040E0000091E6031091E7032091E8033091E90382
:1040F00060237123822393231F910F910C94F61F49
:104100000F931F9341E050E060E070E004C0440F63
:10411000551F661F771F8A95D2F78091E60390910D
:10412000E703A091E803B091E9038A019B01082706
:1041300019272A273B27C901B8011F910F910C9419
:10414000F61F0F931F930091E6031091E703209150
:10415000E8033091E903602B712B822B932B1F9185
:104160000F910C94F61F0F931F930091E60310918B
:10417000E7032091E8033091E90360237123822350
:1041800093231F910F910C94F61F0F931F9300918F
:10419000E6031091E7032091E8033091E9036027DB
:1041A0007127822793271F910F910C94F61F089572
:1041B0002CE0929F800D1124982F977041E001C050
:1041C000440F9A95EAF786958695869595E0899F9E
:1041D000F0011124E853FC4F90E080E070E0519131
:1041E000DF0111979B01082E02C0369527950A948E
:1041F000E2F7217021952527242325272C9301966A
:104200008530910561F708952CE0929F800D11246F
:10421000982F977086958695869525E0829FF00168
:104220001124E853FC4F50E040E080E0219130E061
:10423000092E02C0369527950A94E2F7217033279C
:10424000042E01C0220F0A94EAF7822B4F5F5F4FC2
:104250004530510559F70895BF92CF92DF92EF9202
:10426000FF920F931F93CF93DF938C01C090E603CF
:10427000D090E703E090E803F090E9038091EA032F
:104280009091EB03A091EC03B091ED03C82AD92AD9
:10429000EA2AFB2ACFE1D0E0BC2ED701C6010C2EC2
:1042A00004C0B695A795979587950A94D2F780FD97
:1042B0000EC0219788F7B12C8B2DDF91CF911F91E4
:1042C0000F91FF90EF90DF90CF90BF900895B801CD
:1042D0008C2F0E94BB06019761F3EECFCF93DF9343
:1042E000EC010E942C21BE01DF91CF910C94BB0602
:1042F0001F93CF93DF93EB0190918F03992331F0BC
:10430000CB01DF91CF911F910C946E21882379F01E
:10431000CB010E942C21182F682FCE010E94D8209B
:10432000BE01812FDF91CF911F910C94BB06CB0171
:104330000E940421182FF4CF682F80912C029091B5
:104340002D020C949E23682F80912C0290912D02B7
:104350000C94A02380912C0290912D020C94A22306
:104360008091EE0385958595859508958091EE035E
:10437000877008959091EE03977081E009F480E0D2
:1043800008959091080492FB222720F9281751F0F4
:1043900080FB92F99093080480910704909108049F
:1043A0000C94CB2208958091080482FB882780F921
:1043B00091E089270C94C12181E00C94C12180E017
:1043C0000C94C1218091FA0308959091FA03892BEE
:1043D0008093FA03089580959091FA03982390931F
:1043E000FA0308951092FA0308958091F90308954D
:1043F0009091F903892B8093F9030895809590910A
:10440000F90398239093F90308951092F9030895FE
:104410009091F803892B8093F803089580959091EB
:10442000F80398239093F80308951092F8030895E1
:104430008091EF03089508950C941B229091080435
:1044400092FD08C09091EF03981721F08093EF033D
:104450000C941C2208958091EF03882329F0109278
:10446000EF0380E00C941C220895E0912C02F0915F
:104470002D028091FA038083E0912C02F0912D02AD
:1044800080819091F903892B8083E0912C02F09137
:104490002D0280819091F803892B80839091EF0306
:1044A000992381F0E0912C02F0912D028081892BDB
:1044B000808380912C0290912D020E9456238111BD
:1044C0000E942B2280912C0290912D020C94241793
:1044D00008950C9468229091080492FD10C098E011
:1044E000899F90011124622B6093EE030E943C206F
:1044F0008091EE038595859585950C9469220C94A1
:104500003C201092EE0380E00C9469229091EE031F
:10451000809589238093EE03282F277039F4282F64
:10452000082E000C330B9217130621F49091080407
:1045300092FF07C08595859585950E945D200C9416
:104540008122089580E008956FEF7FEF90E080E092
:104550000C94EC2B90E080E00E94B82B21E08A3E86
:104560009E4F09F020E0822F089582E090E00C94A5
:10457000B02B83E090E00C94B02BCF9384E090E0DC
:104580000E94B02BC82F82E290E00E94B02B982F9F
:104590008C2FCF910895CF93C92F682F84E090E09E
:1045A0000E94CE2B6C2F82E290E0CF910C94CE2B08
:1045B000AB01BC018FE090E00C94E02BAB01BC019F
:1045C00083E190E00C94E02B60E070E0CB010C9470
:1045D000DE2260E070E0CB010E94D8220C94E4223D
:1045E0006AEE7EEF90E080E00E94EC2B60E082E0DB
:1045F00090E00E94CE2B60E083E090E00E94CE2B02
:104600001092EA031092EB031092EC031092ED0368
:1046100060E084E090E00E94CE2B60E082E290E0D7
:104620000E94CE2B60E085E090E00E94CE2B60E0FF
:1046300086E090E00E94CE2B6FEF87E090E00E9432
:10464000CE2B40E050E0BA0188E090E00E94E02BE1
:1046500060E08DE090E00E94CE2B40E050E0BA0197
:1046600088E190E00E94E02B60E087E190E00E940A
:10467000CE2B40E050E0BA018CE190E00E94E02BAC
:1046800070E060E080E290E00E94EC2B40E050E0BF
:10469000BA0188E190E00E94E02B0C94E9220C948E
:1046A000F022682F8EE090E00C94CE2B9C012E5FC0
:1046B0003F4FAC01485F5F4F80E02417350709F496
:1046C0000895F90191919F019923B9F38F5FF5CF77
:1046D000662349F0FC01329608962191261729F0AD
:1046E000E817F907D1F780E0089581E008959C016B
:1046F000FC0132969FEF80E04191461751F09F3FB9
:1047000019F4411101C0982F8F5F8630A9F79F3FA0
:1047100009F40895290F311D97FD3A95F901628337
:104720000895FC01329608962191261303C0DF01FB
:1047300011971C92E817F907B9F708950C9477239D
:104740000C949123029626E0FC0111922A95E9F738
:104750000895089508958091F304843061F10E94D2
:10476000E20280E00E94930681E00E94CA1110924A
:10477000FC0388E190E020E40FB6F894A8958093BC
:1047800060000FBE2093600083B7817F846083BF89
:1047900083B7816083BF7894889583B78E7F83BF0A
:1047A0000FB6F894A89580916000886180936000AE
:1047B000109260000FBE08950895CF930E94A92320
:1047C0000E9452090E94DC23C0E08C2F0E94EB085B
:1047D000892B31F4CF5FC430C1F780E0CF910895C9
:1047E00081E0FCCF08950E94221C0E940B170E94BA
:1047F000930680E00E94CA110C94E7021F921FB634
:104800001F9211248F939F93AF93BF938091FC03CA
:10481000811113C08091EB049091EC04A091ED0400
:10482000B091EE044196A11DB11D8093EB049093CD
:10483000EC04A093ED04B093EE04BF91AF919F916F
:104840008F911F901FBE1F90189582E084BD93E04A
:1048500095BD9AEF97BD80936E0008952FB7F89499
:104860008091EB049091EC04A091ED04B091EE04E2
:104870002FBF08952FB7F8946091EB047091EC046A
:104880008091ED049091EE042FBF08959C014FB7E5
:10489000F8948091EB049091EC04A091ED04B09118
:1048A000EE044FBF821B930B0895CF92DF92EF92DD
:1048B000FF922FB7F894C090EB04D090EC04E090F6
:1048C000ED04F090EE042FBFA7019601261B370BD5
:1048D000480B590BCA01B901FF90EF90DF90CF90C0
:1048E000089578941F921FB61F9211248F939F935F
:1048F000AF93BF938091EB049091EC04A091ED04F1
:10490000B091EE040196A11DB11D8093EB0490932C
:10491000EC04A093ED04B093EE04BF91AF919F918E
:104920008F911F901FBE1F90189581E08093E0002B
:1049300080E28093D8001092C9008FE19EE4019735
:10494000F1F700C0000087E090EBDC018093FC04ED
:104950009093FD04A093FE04B093FF0488E19CE0D3
:104960000FB6F894A895809360000FBE90936000F6
:10497000FFCF90932B0380932A0308958091050421
:104980000895CF93DF9300D00F92CDB7DEB790910B
:10499000F304943019F589837B836A8382E08093E2
:1049A000E9008FEF9091E800815095FD06C095EDEC
:1049B0009A95F1F700008111F5CF8091E80085FF0D
:1049C0000DC050E040E063E070E0CE0101960E942F
:1049D000D8268091E8008E778093E8000F900F90A2
:1049E0000F90DF91CF910895BC0184E00C94C12415
:1049F000BC0183E00C94C1249C0182E08093E90017
:104A00009FEF8091E800915085FD06C085ED8A9565
:104A1000F1F700009111F5CF8091E80085FF0CC0FF
:104A200050E040E066E070E0C9010E94D826809125
:104A3000E8008E778093E8000895CF93DF93EC0130
:104A400081E08093E9008FEF9091E800815095FD1F
:104A500006C095ED9A95F1F700008111F5CF809190
:104A6000E80085FF14C050E040E068E070E0CE014F
:104A70000E94D8268091E8008E778093E80088E035
:104A8000FE01ADEFB3E001900D928A95E1F7DF9161
:104A9000CF9108958091F204811109C00E94682885
:104AA0000E94C5288091E20084608093E20008950E
:104AB0001092F204089508950895089542E061EC7B
:104AC00081E00E94E42742E261EC82E00C94E4275A
:104AD0008091F504833009F45FC030F48130C1F176
:104AE000823009F49BC008958A3009F487C08B3066
:104AF00009F46DC0893009F04EC08091F404813210
:104B000009F049C08091F8049091F904029708F0E7
:104B100042C08091E800877F8093E8008091E800A0
:104B200082FF35C09091F3008091F200029729F442
:104B30008091F1008B7F813021F48091F10080938E
:104B400005048091E8008B778093E8000C94182886
:104B50008091F404813AF9F48091E800877F809392
:104B6000E8008091F8049091F904892B61F468E0E1
:104B70008DEF93E070E00E9427278091E8008B770B
:104B80008093E800089560E090E080E0F3CF8091AA
:104B9000F3048111C3CF08958091F404813AD9F7C9
:104BA0008091F8049091F904892BA9F78091E8008D
:104BB000877F8093E8008091E80080FFFCCF8091A0
:104BC00038028093F1008091E8008E77BDCF80910C
:104BD000F404813201F78091F8049091F904892B53
:104BE000D1F68091E800877F8093E8000E94182822
:104BF0008091F604809338020C94221C8091F40476
:104C0000813249F68091E800877F8093E8000E9416
:104C100018288091F7048093060408958091F40485
:104C2000813A09F0B8CF8091E800877F8093E8004F
:104C30008091E80080FFFCCF80910604C2CF84B74A
:104C4000877F84BF0FB6F894A89580916000886133
:104C500080936000109260000FBE80E890E00FB675
:104C6000F89480936100909361000FBE0E948917B1
:104C70000E9468280E94C5288091E2008460809389
:104C8000E20078940E944E2B0E949D178EE292E0E3
:104C90000E9406178091F304853099F00E94A317B3
:104CA0000E949917F7CF0E94AB238091F1048823CB
:104CB00041F00E94DD23882321F00E94C2260E9439
:104CC000221C8091F304853071F30E94F323E6CF18
:104CD0000C946A26292F33272330310519F168F403
:104CE0002130310509F444C02230310509F445C0B2
:104CF00090E080E030E020E025C02132310549F12C
:104D000022323105A9F780E490E022EF34E061150A
:104D10007105C1F08BE790E027E734E06130710561
:104D200089F0E6CF99278130910581F0009729F02D
:104D30000297F1F6EAEEF3E002C0E6E2F4E08491D5
:104D400090E09F01FA01318320830895EEE0F4E0C2
:104D5000F6CF89E090E02CE334E06115710591F322
:104D600089E090E025E534E06130710559F3C0CF6A
:104D700082E190E025E634E0E5CF8BE390E02AE2A3
:104D800034E0E0CF80E189BD82E189BD09B400FE55
:104D9000FDCF8091D8008F7D8093D8008091E00076
:104DA00082608093E0008091E00081FDFCCF089557
:104DB000AF92BF92CF92DF92FF920F931F93CF9348
:104DC000DF936C01EB018A010E943728F82E8111D4
:104DD00023C00115110539F0F80180819181C81BAC
:104DE000D90BC80ED91EB12CA12C2097A9F0809107
:104DF000E80085FD22C08091E8008E778093E8006E
:104E000001151105A1F0F80180819181A80EB91E4C
:104E1000B182A08285E0F82E8F2DDF91CF911F9176
:104E20000F91FF90DF90CF90BF90AF9008950E94B8
:104E300037288823D1F2F82EEFCFF60181916F0148
:104E40008093F1002197FFEFAF1ABF0ACECFFC018C
:104E50008091FA049091FB0486179707A0F06115E2
:104E6000710529F49091E8009E779093E80090E016
:104E70006115710551F4911108C08091E80082FF1D
:104E800034C080E00895BC01F2CF8091F304882300
:104E9000C1F18530C1F18091E80083FD30C080917F
:104EA000E80082FDEACF8091E80080FFE1CF8091A9
:104EB000F3002091F200382F6115710519F02830A8
:104EC000310558F091E02830310509F090E020914B
:104ED000E8002E772093E800CBCF81918093F100FA
:104EE000615071092F5F3F4FE7CF8091F304882312
:104EF00041F0853041F08091E80083FFBECF81E032
:104F0000089582E0089583E00895FC018091FA04F9
:104F10009091FB0486179707A0F06115710529F49D
:104F20008091E8008E778093E80090E0611571052C
:104F300051F4911108C08091E80082FF35C080E0F3
:104F40000895BC01F2CF8091F3048823C9F1853024
:104F5000C9F18091E80083FD31C08091E80082FDB5
:104F6000EACF8091E80080FFE1CF8091F3002091AB
:104F7000F200382F6115710519F02830310558F00D
:104F800091E02830310509F090E08091E8008E77BB
:104F90008093E800CBCF84918093F10031966150EB
:104FA00071092F5F3F4FE6CF8091F304882341F0D2
:104FB000853041F08091E80083FFBDCF81E0089506
:104FC00082E0089583E00895982F973028F08F703D
:104FD0008093E90081E008959093E900242F762FD3
:104FE00050E0981731F07091EC002091ED00509155
:104FF000F00021FD02C09F5FE8CF3091EB003E7FC3
:105000003093EB003091ED003D7F3093ED00309117
:10501000EB0031603093EB007093EC002093ED00D7
:105020005093F0002091EE0027FDE5CF80E0089539
:105030008091F40487FF13C08091E80082FF06C0CE
:105040008091E8008B778093E80004C08091F3049E
:105050008111F2CF08958091F3048823D9F38091D0
:10506000E80080FFF8CF8091E8008E77ECCF2091A8
:10507000E4003091E50095E6A9012091EC00822F33
:10508000817020FF06C08091E80080FF06C080E0AC
:1050900008952091E80022FD1AC08091F30488232E
:1050A00089F0853089F08091EB0085FD0FC020915B
:1050B000E4003091E50042175307F9F29150E1F610
:1050C00084E0089582E0089583E0089581E00895E2
:1050D0000E94D6280E94DE28E0EEF0E08081816008
:1050E0008083E8EDF0E080818F77808319BCA7EDA5
:1050F000B0E08C918E7F8C9380818F7E8083109224
:10510000F20408950F931F93CF93DF930E94D62844
:105110000E94DE28C8EDD0E088818F77888388815F
:105120008068888388818F7D888319BC1092F304FE
:105130001092EF041092F1041092F00400EE10E0CF
:10514000F80180818B7F808388818160888342E041
:1051500060E080E00E94E427E1EEF0E080818E7F55
:105160008083E2EEF0E080818160808380818860CE
:105170008083F80180818E7F80838881806188832D
:10518000DF91CF911F910F910895E8EDF0E08081BC
:105190008F7E8083E7EDF0E080818160808384E012
:1051A00082BF81E08093F2040C948228E8EDF0E065
:1051B00080818E7F80831092E20008951092DA0041
:1051C0001092E10008951F920F920FB60F921124D2
:1051D0002F933F934F935F936F937F938F939F93FF
:1051E000AF93BF93EF93FF938091E10082FF0BC0D9
:1051F0008091E20082FF07C08091E1008B7F809365
:10520000E1000E944D2B8091DA0080FF19C080914F
:10521000D80080FF15C08091DA008E7F8093DA007D
:105220008091D90080FF96C080E189BD82E189BD6F
:1052300009B400FEFDCF81E08093F3040E944A256B
:105240008091E10080FF19C08091E20080FF15C0CD
:105250008091E2008E7F8093E2008091E200806185
:105260008093E2008091D80080628093D80019BCBE
:1052700085E08093F3040E945C258091E10084FF27
:105280002BC08091E20084FF27C080E189BD82E1CC
:1052900089BD89B5982F917080FFFBCF8091D80090
:1052A0008F7D8093D8008091E1008F7E8093E10014
:1052B0008091E2008F7E8093E2008091E200816025
:1052C0008093E2008091EF04882309F449C084E0D0
:1052D0008093F3040E945D258091E10083FF29C043
:1052E0008091E20083FF25C08091E100877F809359
:1052F000E10082E08093F3041092EF048091E100DA
:105300008E7F8093E1008091E2008E7F8093E200A7
:105310008091E20080618093E20042E060E080E002
:105320000E94E4278091F00088608093F0000E9442
:105330005B25FF91EF91BF91AF919F918F917F91ED
:105340006F915F914F913F912F910F900FBE0F90F2
:105350001F90189519BC1092F3040E94582570CF25
:105360008091E30087FD93E09093F304B3CF1F9205
:105370000F920FB60F9211242F933F934F935F9389
:105380006F937F938F939F93AF93BF93CF93DF934D
:10539000EF93FF93D091E900DF708091EC00C82F6C
:1053A000C17080FDC0E81092E9008091F000877F15
:1053B0008093F00078940E94FB291092E90080917C
:1053C000F00088608093F000CD2BCF70C093E9008F
:1053D000FF91EF91DF91CF91BF91AF919F918F910D
:1053E0007F916F915F914F913F912F910F900FBEE1
:1053F0000F901F9018951F93CF93DF93CDB7DEB713
:10540000AA970FB6F894DEBF0FBECDBF84EF94E02D
:105410002091F100FC012193CF01F4E08C3F9F0724
:10542000B9F70E9468258091E80083FF1EC1809132
:10543000F4049091F5049A3008F017C1E92FF0E0D8
:10544000E95DF34D0C94912B803899F0823809F086
:105450000CC18091F8048F70873008F006C18093EA
:10546000E9008091EB0085FB882780F91092E90024
:1054700006C08091F0049091F104911182609091A6
:10548000E800977F9093E8008093F1001092F1007C
:105490008091E8008E77E5C0882309F4D3C082307C
:1054A00009F0E3C08091F6048111D6C08091F80420
:1054B0008F702FEF280F263008F0D7C08093E900B7
:1054C0002091EB0020FFC8C0933031F48091EB00B5
:1054D00080628093EB00C0C09091EB00906190934C
:1054E000EB0021E030E001C0220F8A95EAF720931B
:1054F000EA001092EA008091EB008860EACF811107
:10550000B4C01091F6041F778091E3008078812B5E
:105510008093E3008091E800877F8093E8000E94F9
:1055200018288091E80080FFFCCF8091E30080681C
:105530008093E30082E0111183E08093F30495C02F
:105540008058823008F091C08091F6049091F70461
:105550008C3D23E09207A1F583E08A838AE2898368
:105560004FB7F894DE01139620E03EE051E2E32FBE
:10557000F0E050935700E49120FF03C0E295EF70F4
:105580003F5FEF708E2F90E0EA30C0F0C7968D93AA
:105590009D932F5F243159F74FBF8091E800877F9B
:1055A0008093E8006AE270E0CE0101960E9427270E
:1055B0008091E8008B778093E80057C0C096E7CFD2
:1055C0006091F8047091F904AE014F5F5F4F0E9443
:1055D0006826BC01892B09F448C09091E800977FA8
:1055E0009093E80089819A810E948527E1CF8038D5
:1055F000E1F58091E800877F8093E8008091EF04D7
:105600008093F10045CF811130C09091F604923023
:1056100060F58091E800877F8093E8009093EF0425
:105620000E9418288091EF04882311F084E005C0BF
:105630008091E30087FDFACF81E08093F3040E941C
:105640005E2513C08091F604813079F481E09330B7
:1056500009F080E08093F1041092E9008091E80065
:10566000877F8093E8000E9418288091E80083FFDC
:105670000AC08091E800877F8093E8008091EB006A
:1056800080628093EB00AA960FB6F894DEBF0FBE3F
:10569000CDBFDF91CF911F9108950895CF93809151
:1056A000F3048823A1F0C091E900CF709091EC0041
:1056B000892F817090FD80E8C82B1092E9008091BD
:1056C000E80083FD0E94FB29CF70C093E900CF91D1
:1056D0000895AA1BBB1B51E107C0AA1FBB1FA61739
:1056E000B70710F0A61BB70B881F991F5A95A9F78B
:1056F00080959095BC01CD01089597FB072E16F477
:10570000009407D077FD09D00E94692B07FC05D0D3
:105710003EF4909581959F4F0895709561957F4FC8
:105720000895EE0FFF1F0590F491E02D0994FB0101
:10573000DC0102C001900D9241505040D8F708950D
:10574000DC01CB01FC01F999FECF06C0F2BDE1BD41
:10575000F89A319600B40D9241505040B8F7089530
:10576000F999FECF92BD81BDF89A992780B5089529
:10577000A8E1B0E042E050E00C94A22BDC01A40FC1
:10578000B51F4150504048F0CB01840F951F2E911A
:105790000E94CF2B41505040D0F70895262FF99901
:1057A000FECF92BD81BDF89A019700B4021639F080
:1057B0001FBA20BD0FB6F894FA9AF99A0FBE089551
:1057C0000396272F0E94CF2B0E94CE2B252F0E94BD
:1057D000CF2B242F0C94CF2B0196272F0E94CF2B59
:1057E0000C94CE2BF894FFCF30033B0342034703C6
:1057F0004C03510356035B03600365036A036F03A5
:10580000AF03750367107210A310A810D410FC101A
:105810002411DD19DD19351A351A871AA31A0A1A47
:105820000A1AAE1A3A1B491B491BA51B0A1A0A1A67
:10583000AE1B311C311C3A1C3A1C3C1C3A1C3A1C55
:105840003A1C311C311C411C3A1C3A1C411C242AB4
:105850004C2A352B4C2A352B7F2AA02A352BF72AA8
:02586000032B18
:10586200000102030405060708090A0B0C0D0E0FBE
:10587200101112131415161718191A1B1C1D1E1FAE
:1058820020212223242526272829FF2A2B2C2D2ECE
:105892000000140028003D00510065007A008E00CF
:1058A200A200B700CB00E0000015141528153D1525
:1058B200511565157A158E15A215B715CB15E0157C
:1058C200002A142A282A3D2A512A652A7A2A8E2A4F
:1058D200A22AB72ACB2AE02A0040144028403D40A1
:1058E20051406F408E40A240B740CB40E040DC20A8
:1058F200B020842058202C20002001040404040439
:10590200040404040401010404040404040404045B
:105912000401010404040404040404040401010154
:10592200010101010101010101020202020202A0C0
:1059320015B015C0150000000000000000000000B6
:105942000000001902A015B015C0150000000000EB
:105952000000000000000000001502A015B015C0F4
:10596200150000000000000000000000000000110F
:105972000200000F080000A6000000A5002808642D
:105982001E140A321E0300FF00FFFFFFF003BE24B5
:105992001D25FC24F824F4240100FFFF292F3031B7
:1059A2003233341013222C2D2E292F30313233343E
:1059B2000D0E0F101112131415162D1C1D292F3048
:1059C200313233341314151F20212B1D292F30316E
:1059D200323334222C2D2E151714201D433A5C6DC0
:1059E2006163726F5C002E76627300303100303278
:1059F20000303300303400303500303600303700AC
:105A0200303800303900313000313100313200E2BB
:105A120000E900EA00B500B600B700CD008301CC72
:105A2200008A019201940121022302240225022606
:105A32000227022A02B300B4006F00700081828341
:105A420036663497949667F6F5F4F1F03332C6353C
:105A5200B012B112BC12C712E200E900EA00B500AE
:105A6200B600B700CD008301CC008A0192019401F7
:105A72002102230224022502260227022A02B3005F
:0A5A8200B4006F0070008182830001
:00000001FF
